:10017E00E4F5B375B47275BB70F59012008F80FB09
:10014B00E4FDFCC3ED9FEC9E5015E4FBFA0BBB00EA
:0F015B00010AEB647B4A70F50DBD00010C80E4D6
:01016A002272
:0B018E00EF1FAC0670011E4C70F62243
:10016B00E4FDFCC3ED9FEC9E5008000DBD00010C9F
:02017B0080F111
:01017D00225F
:10010700C0F9A4B0999282F880908CBFC6A186FFEF
:10011700BF01020408102040800001020304050605
:03012700070809BD
:10012A00E4FDFCEF30E704D2808002C280C282D2B2
:10013A0082EF25E0FF0DBD00010CED64084C70E371
:01014A002292
:1000E20074202FF58274013EF583E4932407F58290
:1000F200E43401F583E493FF12012A7F0812012AF6
:04010200C281D28163
:0101060022D6
:0301990001080159
:10008F0020C5137FF47E0112018E20C5090508AF2C
:10009F00087E001200E230C5FD20C6137FF47E01FA
:1000AF0012018E20C6091508AF087E001200E2303B
:1000BF00C6FD20C71D7FF47E0112018E20C709E403
:1000CF00F508AF08FE1200E2E508D3940A4003E4F6
:0300DF00F50822FF
:03000000020003F8
:0C000300787FE4F6D8FD75810802004A01
:10000F0002017EE493A3F8E493A34003F68001F288
:10001F0008DFF48029E493A3F85407240CC8C333F2
:10002F00C4540F4420C8834004F456800146F6DFC1
:10003F00E4800B0102040810204080900199E47EB7
:10004F00019360BCA3FF543F30E509541FFEE493B6
:10005F00A360010ECF54C025E060A840B8E493A37D
:10006F00FAE493A3F8E493A3C8C582C8CAC583CAA8
:10007F00F0A3C8C582C8CAC583CADFE9DEE780BE60
:01019C000062
:00000001FF
