:0C00E600E4F5907F017E001200B080F76E
:0B00F200EF1FAC0670011E4C70F622E0
:1000CE003F065B4F666D7D077F6F777C395E79717A
:0800DE0001020408102040801B
:0A00FD0008080001020304050607CD
:10008F00E4FDFCEF30E704D2808002C280C282D24E
:10009F0082EF25E0FF0DBD00010CED64084C70E30D
:0100AF00222E
:1000B00074082FF8E624CEF582E43400F583E49347
:0D00C000FF12008F7F0212008FC281D281DB
:0100CD002210
:03000000020003F8
:0C000300787FE4F6D8FD75810F02004AFA
:10000F000200E6E493A3F8E493A34003F68001F221
:10001F0008DFF48029E493A3F85407240CC8C333F2
:10002F00C4540F4420C8834004F456800146F6DFC1
:10003F00E4800B01020408102040809000FDE47E54
:10004F00019360BCA3FF543F30E509541FFEE493B6
:10005F00A360010ECF54C025E060A840B8E493A37D
:10006F00FAE493A3F8E493A3C8C582C8CAC583CAA8
:10007F00F0A3C8C582C8CAC583CADFE9DEE780BE60
:0101070000F7
:00000001FF
