:0E0CF7000608000100010001041300010001C5
:100D2500E4F5B2F5B1120A5E120510120CA2120D0D
:060D350070120D7080F247
:10000300060909E6F80C040202020202041E0000BB
:10001300000000071F3020404040404020100000F7
:10002300F008F0806018000000310C031E211E0050
:10003300000000000000000000303000000000005D
:10004300000000000000007F0808087F001CA0A03B
:10005300A07C0018A4A4A47C007C08040408003835
:100063004444443800043F444020007F080404789B
:10007300003854545418007C08040408007C041805
:1000830004780038444444380018A4A4A47C007CB9
:100093000804040800205454547800FC2424241831
:1000A300007F0804047800E010080810E000000F47
:1000B300102020100F0000001010F80000000000B6
:1000C30020203F202000007008080808F0000030BE
:1000D3002824222130000030080808887000001806
:1000E300202121221C000000804030F8000000067F
:1000F3000524243F242400F8888888080800001970
:10010300202020110E0000E0108888900000000FCE
:10011300112020201F00001808088868180000001C
:10012300003E010000000070880808887000001C71
:10013300222121221C0000F008080810E000000121
:10014300122222110F000000000000000000000036
:10015300000000000000000000000000000000009C
:1001630000000000000008F8080000000000203F25
:1001730020202020300000809898000000000020FC
:10018300203F202000008080008080800000203FEE
:10019300210000203F2080808000008080808081BB
:1001A3008E70180601000000808080800000001916
:1001B300242222223F208080800080808000202013
:1001C3003F212000010000000000000000000000AB
:1001D30000000000000008F8080000000000203FB5
:1001E3002020202030000000808080800000001943
:1001F300242222223F2008F8008080000000003FD4
:10020300112020110E00000000000000000000304B
:10021300300000000000180808F808081800000063
:10022300203F2000000008F88888E8081000203FDD
:1002330020202320180008F8F800F8F80800203FD1
:10024300003F003F200008F808080808F000203F9E
:10025300210101010000000000C0C00000000000F7
:1002630000303000000008F8888888887000203F3C
:100273002000030C302008F808000008F808203F8D
:10028300210101213F2000000000000000000000C8
:10029300000000000000000000C0C00000000000DB
:1002A30000303000000000000000000000000000EB
:1002B300000000000000000000000000000000003B
:1002C300000000000000044444445F44C444444428
:1002D3005F44C4040400000000000000FF000008A5
:1002E30010080700000008CC4A49484ACC18007F90
:1002F30088888482E00000FF121252927F00007E01
:1003030088888482E0000484E45C44C48082FE82A2
:100313008282FE82800002017F10103F80601F00F6
:100323000000FF000000100C44241404E50604043C
:10033300142444140C0000804121110D0301010118
:100343003F40404070000000FC242422E302FC44B0
:100353004442C342400040300F02028243300F0048
:100363000000FF000000000000000000000000008B
:10037300000000000000000000000000000000007A
:10038300000000000000000000000000000000006A
:10039300000000000000000000000000000000005A
:0603A30000000000000054
:080D0500062100080808080897
:060B2E008F278C288D29A1
:100B3400E4F52AF52BF52BAD29AF27120CC0E4F50B
:100B44002A75F006E52BA4252AF582E435F0F58311
:100B5400E5822443F582E5833400F583E493FF12B0
:100B64000D0E052AE52AC3940640D674062527F5FA
:0A0B740027052BE52BC3941140BDAB
:010B7E002254
:060BCC008F188C198D1A30
:100BD200E4F51BF51CF51CAD1AAF18120CC0E4F5B8
:100BE2001B7421251BF8E6FF120D0E051BE51BC326
:100BF200940640ED74062518F518051CE51CC394EF
:030C02001240D4C9
:010C050022CC
:0607E1008F2C8C2D8D2EE3
:1007E700E4F52FF530F530AD2EAF2C120CC0E4F543
:1007F7002F75F010E530A4252FF582E435F0F58349
:10080700E5822449F582E5833401F583E493FF12F9
:100817000D0E052FE52FC3940840D6E52E04FDAF36
:100827002C120CC0E4F52F75F010E530A4252FF538
:1008370082E435F0F583E5822451F582E5833401BE
:10084700F583E493FF120D0E052FE52FC39408409F
:10085700D67408252CF52C0530E530C3940D408758
:01086700226E
:060868008F188C198D1A97
:10086E00E4F51BF51CF51CAD1AAF18120CC0E4F51F
:10087E001B75F010E51CA4251BF582E435F0F583FD
:10088E00E5822419F582E5833402F583E493FF12A1
:10089E000D0E051BE51BC3940840D6E51A04FDAFEB
:1008AE0018120CC0E4F51B75F010E51CA4251BF501
:1008BE0082E435F0F583E5822421F582E583340266
:1008CE00F583E493FF120D0E051BE51BC394084040
:1008DE00D674082518F518051CE51CC39405408729
:0108EE0022E7
:0608EF008F188C198D1A10
:1008F500E4F51BF51CF51CAD1AAF18120CC0E4F598
:100905001B75F010E51CA4251BF582E435F0F58375
:10091500E5822469F582E5833402F583E493FF12C9
:100925000D0E051BE51BC3940840D6E51A04FDAF63
:1009350018120CC0E4F51B75F010E51CA4251BF579
:1009450082E435F0F583E5822471F582E58334028E
:10095500F583E493FF120D0E051BE51BC3940840B8
:10096500D674082518F518051CE51CC394044087A2
:01097500225F
:0C0976008F188C198D1A8B1B8A1C891D90
:10098200E4F51EE518D39470400BE4F518051AE55A
:100992001A70020519AD1AAF18120CC0E4F51EAB9D
:1009A2001BAA1CA91D851E82758300120AC9FF128B
:1009B2000D0E051EE51EC3941040E4E51A04FDAFBA
:1009C20018120CC0E4F51E7410251EF582E433F5EE
:1009D20083AB1BAA1CA91D120AC9FF120D0E051E0C
:0709E200E51EC3941040E084
:0109E90022EB
:0C09EA008F188C198D1A8B1B8A1C891D1C
:1009F600E4F51EE518D39470400BE4F518051AE5E6
:100A06001A70020519AD1AAF18120CC0E4F51EAB28
:100A16001BAA1CA91D851E82758300120AC9FF1216
:100A26000D0E051EE51EC3940840E4E51A04FDAF4D
:100A360018120CC0E4F51E7408251EF582E433F581
:100A460083AB1BAA1CA91D120AC9FF120D0E051E97
:070A5600E51EC3940840E017
:010A5D002276
:0C05F3008F178C188D198B1A8A1B891C1D
:1005FF00E4F51DF51EF51EAD19AF17120CC0E4F58D
:10060F001DAB1AAA1BA91C75F002E51EA4F5828565
:10061F00F083120AF6C4F8540FC868FFE5F0C4540B
:10062F00F048FE7C00EF251DFFEC3EFE74A92FF570
:10063F008274003EF583E493FF120D0E051DE51D38
:10064F00C3940840BCE51904FDAF17120CC0E4F5C4
:10065F001DAB1AAA1BA91C75F002E51EA4F5828515
:10066F00F083120AF6C4F8540FC868FFE5F0C454BB
:10067F00F048FE7C00EF251DFFEC3EFE74B12FF518
:10068F008274003EF583E493FF120D0E051DE51DE8
:10069F00C3940840BC74082517F517051EE51EC343
:0706AF00940250030206064D
:0106B6002221
:0C03A9008F178C188D198B1A8A1B891C69
:1003B500E4F51DF51EF51EAD19AF17120CC0E4F5D9
:1003C5001DAB1AAA1BA91C75F002E51EA4F58285B2
:1003D500F083120AF6C4F8540FC868FFE5F0C45458
:1003E500F048FE7C00EF251DFFEC3EFE74A92FF5BD
:1003F5008274003EF583E493FF120D0E051DE51D85
:10040500C3940840BCE51904FDAF17120CC0E4F510
:100415001DAB1AAA1BA91C75F002E51EA4F5828561
:10042500F083120AF6C4F8540FC868FFE5F0C45407
:10043500F048FE7C00EF251DFFEC3EFE74B12FF564
:100445008274003EF583E493FF120D0E051DE51D34
:10045500C3940840BC74082517F517051EE51EC38F
:10046500940250030203BC74082517F517AD19FF54
:10047500120CC0E4F51DAB1AAA1BA91C75F002E508
:100485001EA4F58285F083120AF6C4F8540FC868D5
:10049500FFE5F0C454F048FE7C00EF251DFFEC3E5F
:1004A500FE74A92FF58274003EF583E493FF120DC7
:1004B5000E051DE51DC3940840BCE51904FDAF17E5
:1004C500120CC0E4F51DAB1AAA1BA91C75F002E5B8
:1004D5001EA4F58285F083120AF6C4F8540FC86885
:1004E500FFE5F0C454F048FE7C00EF251DFFEC3E0F
:1004F500FE74B12FF58274003EF583E493FF120D6F
:0A0505000E051DE51DC3940840BC5F
:01050F0022C9
:060B7F008F188C198D1A7D
:100B8500E4F51BEBC43354E0F51C120CC0E4F51B73
:100B9500E51C9002A993FF120D0E051C051BE51B14
:100BA500C3941040EBE51A04FDAF18120CC0E4F530
:100BB5001BE51C9002A993FF120D0E051C051BE5F4
:060BC5001BC3941040EB7D
:010BCB002207
:030CDD0024B0FF41
:100CE0008F20120D3B7F78120C65E4FF120C65AF6C
:070CF00020120C65020D4FFC
:100D0E008F1F120D3B7F78120C657F40120C65AF62
:070D1E001F120C65020D4FCE
:100CC0008F1FED120CDDE51F54F0C4540F4410FFCC
:0D0CD000120CE0E51F540F4401FF020CE080
:020C36008F1815
:100C3800E4F519E519120CDD7F01120CE07F1012A2
:100C48000CE0E4F51AAF18120D0E051AE51AC39454
:0C0C58008040F20519E519C3940840D74C
:010C6400226D
:100C0600E4F518E51824B0FF120CE07F01120CE0A1
:100C16007F10120CE0E4F519E4FF120D0E0519E53C
:0F0C260019C3948040F20518E518C3940840D410
:010C3500229C
:100D3B00D283120D82D284120D82C283120D82C213
:040D4B0084020D828F
:100D4F00C284120D82C283120D82D284120D82D2FE
:040D5F0083020D827C
:100C6500E4FEEF30E704D2838002C283D284C284DB
:0E0C7500EF25E0FF0EBE08EAC283D284C284DF
:010C8300224E
:040D7D007F57DFFEBF
:010D8100224F
:0C0D63007F017EEA7D71DDFEDEFCDFFA20
:010D6F002261
:0C0D70007F2E7E997DF5DDFEDEFCDFFAB3
:010D7C002254
:100C8400D3EF9400EE940040147D6E7C00ED1D7053
:0D0C9400011CED4C70F7EF1F70E61E80E3B1
:010CA1002230
:030D82000000224C
:1006B7007FF47E01120C847FAE120CE0E4FF120C73
:1006C700E07F10120CE07F40120CE07F81120CE0FB
:1006D7007FCF120CE07FA1120CE07FC8120CE07FE5
:1006E700A6120CE07FA8120CE07F3F120CE07FD32C
:1006F700120CE0E4FF120CE07FD5120CE07F8012B1
:100707000CE07FD9120CE07FF1120CE07FDA120CBB
:10071700E07F12120CE07FDB120CE07F40120CE04E
:100727007F20120CE07F02120CE07F8D120CE07F1D
:1007370014120CE07FA4120CE07FA6120CE07FAF2E
:0E074700120CE0E4FF120C36E4FDFF020CC0C1
:100CA2007B007A0079087D047C007F381203A97BDF
:0E0CB200007A0079137D067C007F380205F37E
:10051000E4F518F519F51AC2A0120D63D2A0120D58
:100520007D7F5030A006AE071FEE70F7EF7002D24D
:10053000A07FFA20A006AE071FEE70F7EF7002D280
:10054000A07FFA30A006AE071FEE70F7EF7002D260
:10055000A0E4FEE4F5177F9620A006AD071FED701E
:10056000F7EF7002D2A0E4FF30A0040FEF70F9E5BE
:100570001825E0F518EFD3941E400205180517E57D
:1005800017B408D2740E2EF8A6180EBE05C5120DAB
:100590007D120D7DD2A0E4F517740E2517F8E6251F
:1005A0001AF51AE43519F5190517E517B404EAE543
:1005B0001A6512703DE51075F00A84750800F5099A
:1005C000E51075F00A84AFF0750A008F0BE5117520
:1005D000F00A84AFF0750C008F0DE50E75F00A84FB
:1005E000751300F514E50E75F00A84AFF07515006B
:0205F0008F1664
:0105F20022E6
:100A5E001206B7120C06E4F517E517C454F0FFE5BD
:100A6E0017FB7A00E4FDFC120B7F0517E517C39404
:100A7E000840E67D037C00E4FF120BCC7D047C0075
:100A8E007F081208687D067C007F101208EF7BFF3E
:100A9E007A0079037D047C007F601209767BFF7AF1
:100AAE000079237D067C007F581209EA7BFF7A00CD
:0B0ABE0079337D047C007F480209EAC8
:030000000207559F
:0C075500787FE4F6D8FD75813002079C27
:100AC900BB010CE58229F582E5833AF583E02250E2
:100AD90006E92582F8E622BBFE06E92582F8E2222C
:0D0AE900E58229F582E5833AF583E4932246
:100AF600BB0110E58229F582E5833AF583E0F5F03E
:100B0600A3E0225009E92582F886F008E622BBFE1A
:100B16000AE92582F8E2F5F008E222E5832AF58360
:080B2600E993F5F0A3E9932225
:10076100020D25E493A3F8E493A34003F68001F27C
:1007710008DFF48029E493A3F85407240CC8C33399
:10078100C4540F4420C8834004F456800146F6DF68
:10079100E4800B0102040810204080900CF7E47EF5
:1007A100019360BCA3FF543F30E509541FFEE4935D
:1007B100A360010ECF54C025E060A840B8E493A324
:1007C100FAE493A3F8E493A3C8C582C8CAC583CA4F
:1007D100F0A3C8C582C8CAC583CADFE9DEE780BE07
:010D0D0000E5
:00000001FF
