:1006EE0025632563256325632D256325632D2563EA
:1006FE00256320256325633A256325633A25632503
:10070E006320207765656B3A256325632020746529
:0F071E006D703A256325630025730A0D0A0D00DF
:100368001208C41206A612090012079512045F901B
:10037800006774FFF0A37406F0A374EEF090008C8D
:10038800E0243090006AF090008DE0243090006BFB
:10039800F090008EE0243090006CF090008FE02404
:1003A8003090006DF0900090E0243090006EF09056
:1003B8000091E0243090006FF0900092E02430909B
:1003C8000070F0900093E02430900071F090009459
:1003D800E02430900072F0900095E0243090007393
:1003E800F0900096E02430900074F0900097E0249C
:1003F80030900075F0900098E02430900076F090EE
:100408000099E02430900077F090009AE024309032
:100418000078F090009BE02430900079F090009CE8
:10042800E0243090007AF090009DE0243090007B2A
:10043800F07B017A0079001200689000677401F07F
:10044800A37400F0A37400F07BFF7A0779261200EA
:070458006E1208F3020371AC
:08091F000001020405030611AA
:10089D0050008C000000000000000000000000006F
:0308AD0000000048
:05090B00120910D2C02A
:050910000000000022C0
:0F08D700D2C1D2C0120910C2C1120910C2C02270
:0A091500C2C112090BD2C102091081
:080869001208D77FD012082D00
:10087100D2C112090BA2C19200120910C2C0120901
:0308810010A200C2
:010884002251
:10082D00E4FEEF30E704D2C18002C2C112090BC24F
:0D083D00C0120910EF25E0FF0EEEB408E533
:01084A00228B
:10080E00E4FED2C0120910EF25E0FF12091030C12C
:0E081E00034401FFC2C01209100EEEB408E43C
:01082C0022A9
:10088500AC07120869AF0412082D120871AF0512E2
:08089500082D1208710209157B
:0207E900AD075A
:1007EB00120869AF0512082D1208711209151208AB
:1007FB00D77FD112082D12087112080E1209101290
:02080B000915CD
:01080D0022C8
:10079500E4FCEC90091F93FF1207E9EFC4540FFE28
:1007A500EF540FFDEE75F00AA42DFB749C2CF58219
:0C07B500E43400F583EBF00CECB408D643
:0107C1002215
:10064700E4FB749C2BF582E43400F583E0FF75F03E
:100657000A84FEEF75F00A8474A42BF582E4340053
:10066700F583E5F0F0EEC454F0FF74A42BF582E4B3
:100677003400F583E02FF00BEBB407C6E4FBEB90F7
:10068700091F93FF74A42BF582E43400F583E0FD82
:0F0697001208850BEBB407E67D0C7F0E02088579
:0B090000D2C1D2C07D0C7F0E02088522
:1006A6001207959000A2E0703E9000A1E07038908D
:1006B60000A0E0703290009FE0702C90009EE070E9
:1006C6002690009DE0702090009CE0701AF0A3F048
:1006D600A3740CF0A37403F0A3740BF0A37402F0DC
:0806E600A3740FF01206472275
:10045F0090008C7402F0E4A3F09000A2E0FF75F01E
:10046F000A8490008EF0EF75F00A84A3E5F0F09007
:10047F0000A0E0FF75F00A84900090F0EF75F00A8D
:10048F0084A3E5F0F090009FE0FF75F00A849000E0
:10049F0092F0EF75F00A84A3E5F0F090009EE0FF74
:1004AF0075F00A84900094F0EF75F00A84A3E5F0DC
:1004BF00F090009DE0FF75F00A84900096F0EF75C4
:1004CF00F00A84A3E5F0F090009CE0FF75F00A8439
:1004DF00900098F0EF75F00A84A3E5F0F09000A17A
:1004EF00E0FF75F00A8490009AF0EF75F00A84A38C
:1004FF00E5F0F09000A3E075F00A8490009CF09076
:0E050F0000A3E075F00A8490009DE5F0F02254
:10072D00D20A9000ACE0FEA3E0FF1208B1D209900E
:10073D0000ACE0FEA3E0FF1208B1C20A9000ACE0ED
:10074D00FEA3E0FF1208B1C2099000ACE0FEA3E0E9
:04075D00FF0208B1DE
:10076100C20B9000AEE0FEA3E0FF1208B1C20C90F4
:1007710000AEE0FEA3E0FF1208B1D20B9000AEE0A4
:10078100FEA3E0FF1208B1D20C9000AEE0FEA3E0A0
:04079100FF0208B1AA
:040927007F57DFFE19
:01092B0022A9
:0C08E6007F017EEA7D71DDFEDEFCDFFAA2
:0108F20022E3
:0C08F3007F2E7E997DF5DDFEDEFCDFFA35
:0108FF0022D6
:10084B00D3EF9400EE940040147D6E7C00ED1D7090
:0D085B00011CED4C70F7EF1F70E61E80E3EE
:01086800226D
:1008B100E4FDFCC3ED9FEC9E5008000DBD00010C52
:0208C10080F1C4
:0108C3002212
:1008C400438920439850758DFD758BFDD28ED29946
:0308D400D2AF227E
:030000000205BB3B
:0C05BB00787FE4F6D8FD7581210206026D
:10000300E5082467F582E43400F583E005082290CF
:100013000064300703900067E475F0011205750270
:10002300051D2000E97F2ED2008018EF540F249085
:10003300D43440D4FF30040BEF24BFB41A00500370
:100043002461FFE50960021509050CE50C70020542
:100053000B30070E900064E475F001120575EF0292
:1000630005630207C27403D2078003E4C207F508DD
:1000730090006412058CE4F509F50BF50CE50960B5
:10008300077F2012004680F5750AFFC201C200C235
:1000930002C203C205C206C208120012FF700D306D
:1000A30007057F00120057AF0CAE0B22B4255FC2C9
:1000B300D5C204120012FF24D0B40A00501A75F0FE
:1000C3000A780930D50508B6FF0106C6A426F6202E
:1000D300D5047002D20380D924CFB41A00EF5004A0
:1000E300C2E5D204020258D20180C6D20080C0D237
:1000F3000280BCD2D580BAD20580B47F20120046DC
:100103002002077401B5090040F1120003FF120039
:1001130046020080D208D2068095120003FB12002B
:1001230003FA120003F94A4B700679297A037BFF1D
:1001330020022EE509602A7E008E82758300120557
:100143003660060EEE650A70F0C2D5EBC0E0EAC079
:10015300E0E9C0E0EE12029FD0E0F9D0E0FAD0E08F
:10016300FB12051DFF60AAEBC0E0EAC0E0E9C0E0B6
:10017300120046D0E02401F9D0E03400FAD0E0FBCD
:10018300E50A0460DCD50AD980877BFF7A02799B74
:10019300D202809C791080027908C206C2088008C6
:1001A300D2D5790A8004790AC2D5E50A047002F52A
:1001B3000AE4FAFDFEFF120003FC7B082001131280
:1001C3000003FD7B1030000A120003FE120003FF40
:1001D3007B20EC3382D592D55013C3E43000069FC5
:1001E300FFE49EFEE42001039DFDE49CFCE4CBF8C8
:1001F300C201EC700CCFCECDCCE824F8F870F380BC
:1002030017C3EF33FFEE33FEED33FDEC33FCEB337B
:10021300FB994002FB0FD8E9EB300105F8D0E0C4AD
:1002230048B201C0E00AEC4D4E4F78207B0070C20B
:10023300EAB50A0040BCC0E01202A1D0F0D0E02031
:100243000104C4C0E0C4B201C0F012002FD0F0D545
:10025300F0EB020080120595011D5301975800EE43
:100263004C00EA42019B4F01A34401A3490103430C
:0802730001A955018D46018D22
:10027B0045018D4703495000F22D00F62E01192B35
:10028B0000FA2301172003322A00B24800000111A3
:10029B003F3F3F00790AA2D5200314300509B9105E
:1002AB00020404B9080104A2D5200602500104205F
:1002BB0002689202B509005034C0E07F2030031968
:1002CB007F30A20272067205500F1202F8C202C2F0
:1002DB0006C205C2087F30800F300503E9C0E0126B
:1002EB000046300503D0E0F9D0E0B509CC30051756
:1002FB007F30B9100C1200467F583004077F78808E
:10030B0003B908031200463002057F2D0200467F19
:10031B00202008F87F2B2006F322920280CF286E34
:10032B00756C6C2900D2011200033001F8C2017800
:10033B000930D50108F60200B22D5043495812007E
:10034B00032403B405004001E490034493120037E7
:0D035B00743A120037D203750904020197AD
:1005C700020368E493A3F8E493A34003F68001F2DF
:1005D70008DFF48029E493A3F85407240CC8C33335
:1005E700C4540F4420C8834004F456800146F6DF04
:1005F700E4800B010204081020408090089DE47EEF
:10060700019360BCA3FF543F30E509541FFEE493F8
:10061700A360010ECF54C025E060A840B8E493A3BF
:10062700FAE493A3F8E493A3C8C582C8CAC583CAEA
:10063700F0A3C8C582C8CAC583CADFE9DEE780BEA2
:0108B0000047
:10051D00BB010689828A83E0225002E722BBFE02DC
:09052D00E32289828A83E493220F
:10053600BB010CE58229F582E5833AF583E022507A
:1005460006E92582F8E622BBFE06E92582F8E222C4
:0D055600E58229F582E5833AF583E49322DE
:10056300BB010689828A83F0225002F722BBFE0177
:02057300F32271
:10057500F8E0FBA3A3E0F925F0F0E582158270020F
:070585001583E0FA38F022B3
:09058C00EBF0A3EAF0A3E9F02270
:10059500D083D082F8E4937012740193700DA3A3F5
:1005A50093F8740193F5828883E473740293686009
:0605B500EFA3A3A380DF09
:1007C200EFB40A07740D1207CD740A309811A89974
:1007D200B8130CC2983098FDA899C298B811F63097
:0707E20099FDC299F599226F
:00000001FF
