:0500B80012000380FBB3
:1000030075BBBBC2C0C2C1C2C47F327E0012006EC8
:10001300C2C0C2C1D2C47F327E0012006EC2C0D23F
:10002300C1C2C47F327E0012006EC2C0D2C1D2C42C
:100033007F327E0012006ED2C0C2C1C2C47F327E44
:100043000012006ED2C0C2C1D2C47F327E00120041
:100053006ED2C0D2C1C2C47F327E0012006ED2C043
:0B006300D2C1D2C47F327E0002006ECA
:10006E00E4FDFCC3ED9FEC9E5015E4FBFA0BBB00C8
:0F007E00010AEB647B4A70F50DBD00010C80E4B4
:01008D002250
:0B00AD00EF1FAC0670011E4C70F62225
:10008E00E4FDFCC3ED9FEC9E5008000DBD00010C7D
:02009E0080F1EF
:0100A000223D
:030000000200A15A
:0C00A100787FE4F6D8FD7581070200B8F6
:00000001FF
