:10003100E4FDFCC3ED9FEC9E5015E4FBFA0BBB0005
:0F004100010AEB647B4A70F50DBD00010C80E4F1
:01005000228D
:0B008F00EF1FAC0670011E4C70F62243
:10007000E4FDFCC3ED9FEC9E5008000DBD00010C9B
:0200800080F10D
:01008200225B
:08009A0012005112000380FB6B
:1000510075D90275DA42E4F5F275EA8075FA80F530
:0F006100E9D2DE75BBBBF5B375B47275BB702207
:0600A20074052FF5FA229F
:0600A80074FB2FF5FA22A3
:10000300E4F50820C5127FE87E0312008F20C505A2
:10001300AF081200A230C5FD20C6127FE87E03128E
:0D002300008F20C605AF081200A830C6FDF2
:0100300022AD
:0300000002008378
:0C008300787FE4F6D8FD75810802009A31
:00000001FF
