:0328990002239087
:10260800E4FDFCC3ED9FEC9E5015E4FBFA0BBB0008
:0F261800010AEB647B4A70F50DBD00010C80E4F4
:012627002290
:10280C00E4FDFCC3ED9FEC9E5008000DBD00010CD7
:02281C0080F149
:01281E002297
:1025E300BF010FD2A67F037E0012280CC2A67F0173
:1025F300800DD2A67F017E0012280CC2A67F037E27
:052603000012280C226A
:1021DB00E4F520AE20EBA806088002C313D8FC540C
:1021EB0001FE74082520F8A6060520E520B408E3B7
:1021FB00752008E52024F8FEEFA806088002C3131B
:10220B00D8FC5401FE74082520F8A6060520E5200D
:10221B00B410E0752010E52024F0FFEDA80708802E
:10222B0002C313D8FC5401FF74082520F8A6070538
:10223B0020E520B418E0E4F521E4F520C3741795EC
:10224B00202408F8E6FF1225E30520E520C39418A7
:10225B0040EAC2A67F047E0012280C0521E521C3AB
:04226B00940440D5C2
:01226F00224C
:07288100D288D2A8D2AF22D9
:07288800D28AD2AAD2AF22CE
:05000600C282D281223C
:05000E00D282C2832232
:05288F00D282D281227B
:05289400D282D2832274
:030003000224884C
:10248800C0E0C0F0C083C082C0D075D000C000C01A
:1024980001C002C003C004C005C006C007C2A9C26B
:1024A8008C12285820B20C1200067F947E11122636
:1024B8000880F17FD07E07800A20B20C1200067FC8
:1024C800947E1112260880F112288FD2A9D28CD0BE
:1024D80007D006D005D004D003D002D001D000D058
:0A24E800D0D082D083D0F0D0E032D3
:030013000224F2D2
:1024F200C0E0C0F0C083C082C0D075D000C000C0B0
:1025020001C002C003C004C005C006C007C2A9C200
:102512008C12285820B30C12000E7F947E111226C2
:102522000880F17FD07E07800A20B30C12000E7F54
:10253200947E1112260880F1122894D2A9D28CD04E
:1025420007D006D005D004D003D002D001D000D0ED
:0A255200D0D082D083D0F0D0E03268
:10263F00759850E4F587D2AF438902D28CD2A97531
:06264F008CFF758A9B223E
:10266B00752B00752C25752700752826D2A4C2A3BF
:05267B00D2A2C2A12261
:10268000752B00752C23752700752824D2A4C2A3AE
:05269000D2A2C2A1224C
:10281F00E4F52BF52CF527752827C2A4D2A3D2A255
:03282F00C2A12221
:1027D000752B00752C25E4F527F528D2A4C2A3C2D9
:0427E000A2D2A122BE
:10269500752B00752C28752700752839D2A4C2A37F
:0526A500C2A2D2A12237
:1026AA00752B00752C36752700752829C2A4D2A36C
:0526BA00D2A2C2A12222
:1026BF00752B00752C28752700752839D2A4C2A355
:0526CF00C2A2D2A1220D
:10283200E4F52BF52CF527752829D2A4C2A3D2A240
:03284200C2A1220E
:10284500E4F52BF52CF527752825D2A4C2A3D2A231
:03285500C2A122FB
:1027E400752B00752C2AE4F527F528D2A4C2A3D2B0
:0427F400A2C2A122BA
:1027F800752B00752C24E4F527F528D2A4C2A3D2A2
:04280800A2C2A122A5
:10285800E4F52BF52CF527F528C2A4C2A3C2A2C221
:02286800A122AB
:1026D400752B00752C2275270075282DD2A4C2A352
:0526E400D2A2C2A122F8
:03000B0002255C6F
:10255C00C0E0C0D075D000C000758CFF758A9B059B
:10256C002AE52A70020529B4900BE529B4010675F9
:10257C002900752A00C3E52A952CE52B6480F8E523
:10258C00296480985004D2A08002C2A0C3E52A9589
:10259C0028E5276480F8E5296480985004D2A5804A
:0A25AC0002C2A5D000D0D0D0E0326A
:0C26280002310000022F0000022D000013
:1026550012288112288812286A12263F12266B7FBB
:06266500207E030226089E
:10239000122655E53245317003120A8EE53264018A
:1023A00045317003120016E53264024531700312A4
:1023B00010F7E532640345317003121305E532640A
:1023C0000445317003121513E5326405453170037D
:1023D0001205F6E532640645317003120378E532E2
:1023E000640745317003120CB5E53264084531705D
:1023F00003120842E532640945317003120ED8E534
:0C24000032640A4531708C12172080876E
:100A8E0020910920920630930F30940C309203205F
:100A9E00930E20940B209508052EE52E7002052D41
:100AAE00E52E6404452D6003020C05309603020CFE
:100ABE0005F52D752E06121908309015309112304D
:100ACE00920F20930C309409309506309603020C49
:100ADE000530901530911220920F20930C3094090E
:100AEE00309506309603020C053090153091122089
:100AFE00920F30930C309409309506309603020C09
:100B0E000530901520911220920F30930C309409DD
:100B1E00309506309603020C053090152091123058
:100B2E00920F30930C309409309506309603020CD8
:100B3E000520901520911230920F30930C309409AD
:100B4E00309506309603020C052090153091123028
:100B5E00920F30930C309409309506309603020CA8
:100B6E000530901530911230920F20930C2094097D
:100B7E00309506309603020C0530901230910F30EE
:100B8E00920C30930920940630950320966930908C
:100B9E001230910F30920C30930920940620950359
:100BAE0020965430901230910F30920C30930930C1
:100BBE00940620950320963F30901230910F30927C
:100BCE000C30930930940620950330962A2090031A
:100BDE00020AC4209103020AC4209203020AC4200E
:100BEE009303020AC4209403020AC4209503020A46
:100BFE00C4309603020AC4E52D6003020CB4E52E40
:100C0E00B408004003020CB4900C1DF8282873029F
:100C1E000C35020C41020C4B020C4D020C4B020C1B
:100C2E0065020C7A020C7D1219087BF0E4FD7FF050
:100C3E000221DB052EE52E7026052D80228015055E
:100C4E002EE52E7002052D1227D07FB87E0B1226B0
:100C5E0008022099021B90052EE52E7002052D121A
:100C6E00281F7FD07E07122608021FF7021908756B
:100C7E002F00753001E4FBFDFF1221DB12266B7F86
:100C8E00E87E031226081228581226E90532E532AC
:100C9E0070020531E4F52DF52E1226957F047E1097
:070CAE00122608121EA52208
:10001600C3E52E9404E52D64809480503020910928
:1000260020920630930F30940C30920320930C20CC
:1000360094092095067E007F0180047E007F00EFF4
:1000460064014E7008052EE52E7002052DE52E641E
:1000560004452D600302019A3090153091123092BA
:1000660006309303209409309506309603020184E6
:1000760030901530911230920F20930C2094093055
:100086009506309603020184309015309112309215
:100096000F30930C209409309506309603020184A4
:1000A60030901530911230920F30930C2094092025
:1000B60095063096030201843090153091123092E5
:1000C6000F30930C30940920950630960302018474
:1000D60030901530911230920F30930C30940920E5
:1000E60095062096030201843090153091123092C5
:1000F6000F30930C30940930950620960302018444
:1001060030901230910F20920C20930930940630D3
:10011600950320966930901230910F20920C3093FF
:100126000930940630950320965430901220910F92
:1001360020920C30930930940630950320963F3078
:10014600901220910F30920C30930930940630951E
:100156000320962A20901220910F30920C3093099A
:10016600309406309503209615209018309115305E
:10017600921230930F30940C3095093096067E001B
:100186007F0180047E007F00EF4E7008052EE52E6D
:100196007002052DE52E6402452D60030202F13042
:1001A60096030202F1F52D752E04121908309015EA
:1001B60030911230920F20930C309409309506300E
:1001C60096030202F130901530911220920F20937F
:1001D6000C3094093095063096030202F1309015E2
:1001E60030911220920F30930C30940930950630DE
:1001F60096030202F130901520911220920F30934F
:100206000C3094093095063096030202F1309015B1
:1002160020911230920F30930C30940930950630AD
:1002260096030202F120901520911230920F30931E
:100236000C3094093095063096030202F120901591
:1002460030911230920F30930C309409309506306D
:1002560096030202F130901530911230920F2093DE
:100266000C2094093095063096030202F130901264
:1002760030910F30920C309309209406309503206C
:10028600966930901230910F30920C309309209479
:100296000620950320965430901230910F30920C20
:1002A60030930930940620950320963F3090123003
:1002B600910F30920C3093093094062095033096B6
:1002C6002A2090030201B02091030201B02092037C
:1002D6000201B02093030201B02094030201B02072
:1002E60095030201B03096030201B0E52D600302CA
:1002F6000377E52E1460121460241460241460073A
:100306001460362405706A802D052EE52E700205D0
:100316002D12281F7FD07E07122608021FF7021B08
:1003260090052EE52E7002052D1227D07FB87E0B84
:10033600122608022099021908752F00753002E46A
:10034600FBFD7FFF1221DB12266B7FE87E03122660
:10035600081228581226FE0532E53270020531E4ED
:10036600F52DF52E1226957F047E10122608121EF4
:02037600A522BE
:1010F700C3E52E9404E52D64809480503020910937
:1011070020920630930F30940C30920320930C20DA
:1011170094092095067E007F0180047E007F00EF02
:1011270064014E7008052EE52E7002052DE52E642C
:1011370004452D600302127B3090153091123092D6
:101147000630930320940930950630960302126502
:1011570030901530911230920F20930C2094093063
:101167009506309603021265309015309112309231
:101177000F30930C209409309506309603021265C0
:1011870030901530911230920F30930C2094092033
:101197009506309603021265309015309112309201
:1011A7000F30930C30940920950630960302126590
:1011B70030901530911230920F30930C30940920F3
:1011C70095062096030212653090153091123092E1
:1011D7000F30930C30940930950620960302126560
:1011E70030901230910F20920C20930930940630E2
:1011F700950320966930901230910F20920C30930E
:101207000930940630950320965430901220910FA0
:1012170020920C30930930940630950320963F3086
:10122700901220910F30920C30930930940630952C
:101237000320962A20901220910F30920C309309A8
:10124700309406309503209615209018309115306C
:10125700921230930F30940C3095093096067E0029
:101267007F0180047E007F00EF4E7008052EE52E7B
:101277007002052DE52D6003021304E52E1460129C
:101287001460251460251460071460382405706DF8
:10129700802F1227D07FB87E0B122608121DC30598
:1012A7002EE52E7058052D22021B9012281F7FB89D
:1012B7007E0B122608121FF7052EE52E7002052D4C
:1012C70022021908752F007530037B327DFF7F32AC
:1012D7001221DB12266B7FE87E031226081228589C
:1012E7001227130532E53270020531E4F52DF52E8C
:0E12F7001226957F047E10122608121EA522D4
:10130500C3E52E9404E52D64809480503020910926
:1013150020920630930F30940C30920320930C20CA
:1013250094092095067E007F0180047E007F00EFF2
:1013350064014E7008052EE52E7002052DE52E641C
:1013450004452D60030214893090153091123092B6
:1013550006309303209409309506309603021473E2
:1013650030901530911230920F20930C2094093053
:101375009506309603021473309015309112309211
:101385000F30930C209409309506309603021473A0
:1013950030901530911230920F30930C2094092023
:1013A50095063096030214733090153091123092E1
:1013B5000F30930C30940920950630960302147370
:1013C50030901530911230920F30930C30940920E3
:1013D50095062096030214733090153091123092C1
:1013E5000F30930C30940930950620960302147340
:1013F50030901230910F20920C20930930940630D2
:10140500950320966930901230910F20920C3093FD
:101415000930940630950320965430901220910F90
:1014250020920C30930930940630950320963F3076
:10143500901220910F30920C30930930940630951C
:101445000320962A20901220910F30920C30930998
:10145500309406309503209615209018309115305C
:10146500921230930F30940C3095093096067E0019
:101475007F0180047E007F00EF4E7008052EE52E6B
:101485007002052DE52D6003021512E52E1460127C
:101495001460251460251460071460382405706DE8
:1014A500802F12281F7FB87E0B122608121FF70502
:1014B5002EE52E7058052D22021B9012281F7FB88D
:1014C5007E0B122608121FF7052EE52E7002052D3C
:1014D50022021908752F007530047BFF7DC5E4FFD6
:1014E5001221DB12266B7FE87E031226081228588C
:1014F5001227280532E53270020531E4F52DF52E67
:0E1505001226957F047E10122608121EA522C3
:10151300C3E52E9404E52D64809480503020910916
:1015230020920630930F30940C30920320930C20BA
:1015330094092095067E007F0180047E007F00EFE2
:1015430064014E7008052EE52E7002052DE52E640C
:1015530004452D6003021697309015309112309296
:1015630006309303209409309506309603021681C2
:1015730030901530911230920F20930C2094093043
:1015830095063096030216813090153091123092F1
:101593000F30930C20940930950630960302168180
:1015A30030901530911230920F30930C2094092013
:1015B30095063096030216813090153091123092C1
:1015C3000F30930C30940920950630960302168150
:1015D30030901530911230920F30930C30940920D3
:1015E30095062096030216813090153091123092A1
:1015F3000F30930C30940930950620960302168120
:1016030030901230910F20920C20930930940630C1
:10161300950320966930901230910F20920C3093ED
:101623000930940630950320965430901220910F80
:1016330020920C30930930940630950320963F3066
:10164300901220910F30920C30930930940630950C
:101653000320962A20901220910F30920C30930988
:10166300309406309503209615209018309115304C
:10167300921230930F30940C3095093096067E0009
:101683007F0180047E007F00EF4E7008052EE52E5B
:101693007002052DE52D600302171FE52E1460125D
:1016A3001460251460251460071460382405706CD9
:1016B300802F12281F7FB87E0B122608121FF705F2
:1016C3002EE52E7057052D22021B9012281F7FB87E
:1016D3007E0B122608121FF7052EE52E7002052D2C
:1016E30022021908752F007530057BFFE4FDFF12F8
:1016F30021DB12266B7FE87E03122608122858127C
:10170300273D0532E53270020531E4F52DF52E1241
:0D17130026957FAC7E0D122608121EA52221
:1005F600C3E52E9404E52D64809480503020910943
:1006060020920630930F30940C30920320930C20E6
:1006160094092095067E007F0180047E007F00EF0E
:1006260064014E7008052EE52E7002052DE52E6438
:1006360004452D600302077A3090153091123092EE
:10064600063093032094093095063096030207641A
:1006560030901530911230920F20930C209409306F
:100666009506309603020764309015309112309249
:100676000F30930C209409309506309603020764D8
:1006860030901530911230920F30930C209409203F
:100696009506309603020764309015309112309219
:1006A6000F30930C309409209506309603020764A8
:1006B60030901530911230920F30930C30940920FF
:1006C60095062096030207643090153091123092F9
:1006D6000F30930C30940930950620960302076478
:1006E60030901230910F20920C20930930940630EE
:1006F600950320966930901230910F20920C30931A
:100706000930940630950320965430901220910FAC
:1007160020920C30930930940630950320963F3092
:10072600901220910F30920C309309309406309538
:100736000320962A20901220910F30920C309309B4
:100746003094063095032096152090183091153078
:10075600921230930F30940C3095093096067E0035
:100766007F0180047E007F00EF4E7008052EE52E87
:100776007002052DE52D6003020841E52E14601573
:100786001460631460631460761460762405600355
:10079600020841806A12281F7FB87E0B12260812B3
:1007A6001FF7052EE52E7002052D1219083090FA56
:1007B6003091F73092F42093F13094EE3095EB308F
:1007C60096047F0180027F00BF01DF752B00752C28
:1007D6002D752700752828D2A4C2A3D2A2C2A17F54
:1007E600C87E00022608021A4C1227D07FB87E0B5C
:1007F600122608122099052EE52E703F052D22029D
:100806001908752F007530067B647DFF7FFF122166
:10081600DB12266B7FE87E03122608122858122761
:10082600520532E53270020531E4F52DF52E122619
:0C083600BF7FB87E0B122608121F4E2256
:10037800C3E52E9404E52D648094805039209109BA
:10038800209206309318309415309203209306205B
:10039800940330950920930C2094092092067E003E
:1003A8007F0180047E007F00EF64014E7008052EF7
:1003B800E52E7002052DE52E6404452D701D309044
:1003C8001A30911730921430931130940E30950BE7
:1003D800309608052EE52E7002052DE52D600302E6
:1003E80005F5E52E146022147003020565147003E8
:1003F80002056714700302059E1470030205A12408
:100408000560030205F502240C12266B7FB07E04FA
:1004180012260812268030901530911230920F2043
:10042800930C30940930950630960302055C3090A1
:100438001530911220920F20930C309409309506B4
:1004480030960302055C30901530911220920F30DF
:10045800930C30940930950630960302055C309071
:100468001520911220920F30930C30940930950684
:1004780030960302055C30901520911230920F30AF
:10048800930C30940930950630960302055C209051
:100498001520911230920F30930C30940930950644
:1004A80030960302055C20901530911230920F307F
:1004B800930C30940930950630960302055C309011
:1004C8001530911230920F20930C20940930950624
:1004D80030960302055C30901230910F30920C3048
:1004E8009309209406309503209669309012309134
:1004F8000F30920C309309209406209503209654CF
:1005080030901230910F30920C30930930940620BD
:10051800950320963F30901230910F30920C309313
:100528000930940620950330962A20900302041B74
:1005380020910302041B20920302041B2093030250
:10054800041B20940302041B20950302041B30960D
:100558000302041B052EE52E703B052D2280371261
:10056800281F7FB87E0B122608121FF712190830B1
:1005780090FA3091F73092F42093F13094EE309560
:10058800EB3096047F0180027F00BF01DF052EE576
:100598002E7002052D22021908752F007530077B71
:1005A800FF7DC5E4FF1221DB12266B7FE87E031274
:1005B80026081228581227670532E53270020531DD
:1005C800E4F52DF52E1226BF7FB87E0B12260812F1
:1005D8001F4E752B00752C2775270075282DD2A462
:0E05E800C2A3D2A2C2A17F907E0112260822D9
:100CB50012240CC3E52E9404E52D64809480501114
:100CC50020930E20920B209108052EE52E7002052B
:100CD5002DE52E6404452D6003020E1D3090153060
:100CE5009112309206309303209409309506309680
:100CF50003020E0730901530911230920F20930C9D
:100D0500209409309506309603020E073090153071
:100D1500911230920F30930C20940930950630963D
:100D250003020E0730901530911230920F30930C5C
:100D3500209409209506309603020E073090153051
:100D4500911230920F30930C30940920950630960D
:100D550003020E0730901530911230920F30930C2C
:100D6500309409209506209603020E073090153021
:100D7500911230920F30930C3094093095062096DD
:100D850003020E0730901230910F20920C20930928
:100D950030940630950320966930901230910F20DB
:100DA500920C309309309406309503209654309078
:100DB5001220910F20920C30930930940630950340
:100DC50020963F30901220910F30920C30930930CD
:100DD500940630950320962A20901220910F309288
:100DE5000C30930930940630950320961520901801
:100DF50030911530921230930F30940C30950930A4
:100E050096067E007F0180047E007F00EF4E70080D
:100E1500052EE52E7002052DE52D6003020ED7E5A2
:100E25002E24FD604024FE607124046003020ED769
:100E35001228587FE87E031226081226D47FDC7E0E
:100E450005122608052EE52E7002052D121908300B
:100E550090FA3091F73092F42093F13094EE30957A
:100E6500EB3096E8221228587FE87E0312260812F6
:100E750026D47FDC7E05122608052EE52E70020598
:100E85002D1219083090FA3091F73092F42093F131
:100E95003094EE3095EB3096E822752F00753008CA
:100EA500E4FBFD7FFF1221DB1226807FD07E071237
:100EB500260812285812277C1226AA7F947E111222
:100EC50026080532E53270020531E4F52DF52E12BE
:030ED50022702266
:10084200121908C3E52E9406E52D64809480503079
:1008520020910920920630930F30940C309203209D
:10086200930C2094092095067E007F0180047E006F
:100872007F00EF64014E7008052EE52E7002052DF3
:10088200E52E6406452D60030209C93090153091AA
:100892001230920630930320940930950630960365
:1008A2000209B330901530911230920F20930C2030
:1008B20094093095063096030209B33090153091B1
:1008C2001230920F30930C20940930950630960323
:1008D2000209B330901530911230920F30930C20F0
:1008E20094092095063096030209B3309015309191
:1008F2001230920F30930C309409209506309603F3
:100902000209B330901530911230920F30930C30AF
:1009120094092095062096030209B3309015309170
:100922001230920F30930C309409309506209603C2
:100932000209B330901230910F20920C20930930AB
:10094200940630950320966930901230910F2092D0
:100952000C3093093094063095032096543090124F
:1009620020910F20920C3093093094063095032089
:10097200963F30901220910F30920C3093093094B0
:100982000630950320962A20901220910F30920C67
:100992003093093094063095032096152090183034
:1009A200911530921230930F30940C309509309695
:1009B200067E007F0180047E007F00EF4E700805F6
:1009C2002EE52E7002052DE52D6003020A8DE52E1F
:1009D20014604124FE605224FE606224FE6073248F
:1009E200076003020A8D309003020A8D752D00758F
:1009F2002E021219083090FA3091F73092F42093B7
:100A0200F13094EE3095EB3096047F0180027F0046
:100A1200BF01DF2212281F7F807E0C122608052EBE
:100A2200E52E7002052D021FF71227D07F807E0C63
:100A3200122608052EE52E7016052D80121227D0DB
:100A42007F807E0C122608052EE52E7002052D02EF
:100A52002099752F007530097B327DFF7F3212217C
:100A6200DB12266B7FD07E07122608122858122727
:100A7200911226BF7FB87E0B1226080532E532702E
:0C0A8200020531E4F52DF52E121F4E2266
:100ED800121908C3E52E9406E52D648094805023EA
:100EE800209306209203309112209306209203301B
:100EF800940920930E20940B209508052EE52E705A
:100F080002052DE52E6406452D600302105230902F
:100F180015309112309206309303209409309506CB
:100F280030960302103C30901530911230920F2009
:100F3800930C20940930950630960302103C3090AB
:100F48001530911230920F30930C20940930950689
:100F580030960302103C30901530911230920F30C9
:100F6800930C20940920950630960302103C30908B
:100F78001530911230920F30930C30940920950659
:100F880030960302103C30901530911230920F3099
:100F9800930C30940920950620960302103C30905B
:100FA8001530911230920F30930C30940930950619
:100FB80020960302103C30901230910F20920C20A2
:100FC8009309309406309503209669309012309139
:100FD8000F20920C309309309406309503209654D4
:100FE80030901220910F20920C30930930940630E3
:100FF800950320963F30901220910F30920C309339
:101008000930940630950320962A20901220910FDB
:1010180030920C30930930940630950320961520B1
:10102800901830911530921230930F30940C3095FF
:10103800093096067E007F0180047E007F00EF4E17
:101048007008052EE52E7002052DE52D60030210AF
:10105800F6E52E24FE602614602624FE604D24FE4C
:10106800605E240660030210F612281F7F807E0C43
:10107800122608052EE52E7044052D804002240C0A
:101088001226807FB07E04122608052EE52E7002F7
:10109800052D1219083090FA3091F73092F4209308
:1010A800F13094EE3095EB3096E82212281F7FD06D
:1010B8007E07122608052EE52E7002052D021FF761
:1010C800122858752F0075300A7BFAE4FDFF1221AB
:1010D800DB1227A61226957F887E13122608053272
:0F10E800E53270020531E4F52DF52E121EA5221A
:10172000121908C3E52E9404E52D64809480501AA4
:1017300020930620920330910920930E20940B20D1
:101740009508052EE52E7002052DE52E6404452D25
:101750006003021891309015309112309206309348
:101760000320940930950630960302187B309015BB
:1017700030911230920F20930C209409309506304E
:10178000960302187B30901530911230920F3093EF
:101790000C20940930950630960302187B30901582
:1017A00030911230920F30930C209409209506301E
:1017B000960302187B30901530911230920F3093BF
:1017C0000C30940920950630960302187B30901552
:1017D00030911230920F30930C30940920950620EE
:1017E000960302187B30901530911230920F30938F
:1017F0000C30940930950620960302187B30901225
:1018000030910F20920C20930930940630950320DC
:10181000966930901230910F20920C3093093094D9
:101820000630950320965430901220910F20920C90
:1018300030930930940630950320963F3090122063
:10184000910F30920C309309309406309503209616
:101850002A20901220910F30920C30930930940678
:101860003095032096152090183091153092123043
:10187000930F30940C3095093096067E007F0180DE
:10188000047E007F00EF4E7008052EE52E700205E5
:101890002DE52D7072E52E24FD603D24FE604E2462
:1018A0000470641228587FE87E031226081226D49A
:1018B0007FE87E03122608052EE52E7002052D1204
:1018C00019083090FA3091F73092F42093F1309467
:1018D000EE3095EB3096E82212281F7FB87E0B126F
:1018E0002608052EE52E7002052D021FF712285836
:1018F000752F0075300B7BF0E4FD7FF01221DB12B9
:0819000027BB12285880FE22CB
:101B900030901E30911B30921820931530941230E3
:101BA000950F3096047F0180027F00BF010312264B
:101BB0008030901230910F20920C209309309406BF
:101BC00030950320966930901230910F20920C309E
:101BD000930930940630950320965430901220914A
:101BE0000F20920C30930930940630950320963FD5
:101BF00030901220910F30920C30930930940630BF
:101C0000950320962A20901220910F30920C309349
:101C100009309406309503209615209015309112C6
:101C200030920F30930C30940930950630960312A1
:101C300027E430901530911230920F20930C2094AD
:101C400009309506309603021CC830901230910F6F
:101C500030920C3093092094063095032096693019
:101C6000901230910F30920C3093092094062095F9
:101C70000320965430901230910F30920C3093091B
:101C800030940620950320963F30901230910F300B
:101C9000920C30930930940620950330962A3090A8
:101CA0001230910F30920C30930930940630950326
:101CB00030961530900C30910930920630930330F5
:0C1CC0009406309503209603122832226F
:1019080030901E30911B309218209315309412306D
:10191800950F3096047F0180027F00BF01031226D5
:101928006B30901230910F20920C2093093094065E
:1019380030950320967930901230910F20920C3018
:1019480093093094063095032096643090122091C4
:101958000F20920C30930930940630950320964F4F
:1019680030901220910F30920C3093093094063049
:10197800950320963A20901220910F30920C3093C4
:10198800093094063095032096252090183091153B
:1019980030921230930F30940C3095093096067EB1
:1019A800007F0180047E007F00EF64014E70031207
:1019B80027E430901230910F30920C209309209434
:1019C8000630950320967930901230910F30920CA2
:1019D8003093092094063095032096643090123095
:1019E800910F30920C30930920940620950320968D
:1019F8004F30901230910F30920C3093093094068A
:101A080020950320963A30901230910F30920C3086
:101A1800930930940620950330962530901830911C
:101A28001530921230930F30940C30950920960699
:101A38007E007F0180047E007F00EF64014E70030A
:041A4800122832220C
:10240C0030901E30911B309218209315309412305E
:10241C00950F3096047F0180027F00BF01031226C6
:10242C006B30901230910F20920C2093093094064F
:10243C0030950320961530901530911220920F3064
:10244C00930C3094093095063096031227F830908F
:10245C001230910F30920C20930920940630950382
:10246C0020961530901530911230920F30930C202D
:0C247C0094093095063096031228452282
:101A4C0030901E30911B3092182093153094123028
:101A5C00950F3096047F0180027F00BF0103122690
:101A6C008030901230910F20920C20930930940604
:101A7C0030950320967930901230910F20920C30D3
:101A8C00930930940630950320966430901220917F
:101A9C000F20920C30930930940630950320964F0A
:101AAC0030901220910F30920C3093093094063004
:101ABC00950320963A20901220910F30920C30937F
:101ACC0009309406309503209625209018309115F6
:101ADC0030921230930F30940C3095093096067E6C
:101AEC00007F0180047E007F00EF64014E700312C2
:101AFC0027E430901230910F30920C2093092094EF
:101B0C000630950320967930901230910F30920C5C
:101B1C00309309209406309503209664309012304F
:101B2C00910F30920C309309209406209503209647
:101B3C004F30901230910F30920C30930930940644
:101B4C0020950320963A30901230910F30920C3041
:101B5C0093093094062095033096253090183091D7
:101B6C001530921230930F30940C30950920960654
:101B7C007E007F0180047E007F00EF64014E7003C5
:041B8C0012283222C7
:101FF70012281F30901230910F30920C2093093025
:10200700940630950320965430901230910F209209
:102017000C20930930940630950320963F30901298
:1020270030910F20920C309309309406309503209D
:10203700962A30901220910F20920C3093093094F9
:10204700063095032096153090A62091A33092A0D4
:1020570030939D30949A309597309694752B0075F0
:102067002C27752700752829D2A4C2A3C2A2D2A102
:102077007FC87E00122608752B00752C2A7527004D
:1020870075282AD2A4C2A3D2A2C2A17F907E010240
:02209700260819
:102099001227D030901230910F30920C20930930D2
:1020A900940630950320965430901230910F309257
:1020B9000C20930920940630950320963F30901206
:1020C90030910F30920C30930920940630950320FB
:1020D900962A30901230910F30920C309309209447
:1020E900062095032096153090A63091A33092A032
:1020F90030939D30949A209597309694752B00755E
:102109002C2B75270075282BC2A4D2A3D2A2C2A159
:102119007FC87E00122608752B00752C29752700AB
:1021290075282BD2A4C2A3D2A2C2A17F907E01029C
:02213900260876
:101DC3001227D030901530911230920F20930C309F
:101DD3009409309506309603021EA4309015309175
:101DE3001230920F20930C209409309506309603FD
:101DF300021EA430901530911230920F30930C20B4
:101E03009409309506309603021EA4309015309144
:101E13001230920F30930C209409209506309603CC
:101E2300021EA430901230910F30920C309309307F
:101E3300940620950320966930901230910F3092CA
:101E43000C30930930940620950330965430901249
:101E530030910F30920C3093093094063095033053
:101E6300963F30901230910F30920C30930930949A
:101E73000620950330962A209003021DC320910368
:101E8300021DC3209203021DC3209303021DC3201E
:101E93009403021DC3209503021DC3309603021D44
:021EA300C32258
:101EA50012269530901230910F30920C2093093004
:101EB500940630950320963A30901230910F209277
:101EC5000C20930930940630950320962530901800
:101ED50030911530921220930F20940C30950930D3
:101EE50096067E007F0180047E007F00EF64014E30
:101EF50070AE1228587F587E02122608752B007581
:101F05002C3075270075282DC2A4D2A3D2A2C2A158
:101F15003090E93091E63092E32093E03094DD3063
:101F250095DA3096047F0180027F00BF01CE752BC4
:101F350000752C33752700752836D2A4C2A3D2A20A
:091F4500C2A17F587E02022608A9
:102270001226AA30901230910F30920C2093093020
:1022800094063095032096253090183091153092A1
:102290001220930F20940C3095093096067E007F13
:1022A0000180047E007F00EF64014E70C312285845
:1022B0007F587E02122608752B00752C2875270082
:1022C000752839D2A4C2A3C2A2D2A13090E930911C
:1022D000E63092E32093E03094DD3095DA309604D6
:1022E0007F0180027F00BF01CE752B00752C3375F6
:1022F0002700752834D2A4C2A3D2A2C2A17F587EDF
:0423000002022608A7
:101F4E0012269530901230910F30920C209309305A
:101F5E00940630950320963A30901230910F2092CD
:101F6E000C20930930940630950320962530901856
:101F7E0030911530921220930F20940C3095093029
:101F8E0096067E007F0180047E007F00EF64014E86
:101F9E0070AE1228587F587E02122608752B0075D7
:101FAE002C3075270075282DC2A4D2A3D2A2C2A1AF
:101FBE003090E93091E63092E32093E03094DD30BA
:101FCE0095DA3096047F0180027F00BF01CE752B1B
:101FDE0000752C33752700752834D2A4C2A3D2A263
:091FEE00C2A17F587E0202260800
:101CCC00CFD6D4DAB5C4CEBBD6C3CAC7BBA8B6BCB4
:101CDC00B9E3B3A100CFD6D4DAB5C4CEBBD6C3CA50
:101CEC00C7B0D7D4C6C9BD00CFD6D4DAB5C4CEBB25
:101CFC00D6C3CAC7BBAAC4CFD6B2CEEFD4B000CF1E
:101D0C00D6D4DAB5C4CEBBD6C3CAC7B9E3B6ABCA50
:101D1C00A1B2A9CEEFB9DD00CFD6D4DAB5C4CEBB13
:101D2C00D6C3CAC7B9E3D6DDCBFE00CFD6D4DAB55D
:101D3C00C4CEBBD6C3CAC7D6D0C9BDBCCDC4EEB900
:101D4C00DD00CFD6D4DAB5C4CEBBD6C3CAC7BBC6AA
:101D5C00C6D2BEFCD0A300CFD6D4DAB5C4CEBBD687
:101D6C00C3CAC7B3A4C2A1B6AFCEEFD4B000CFD60E
:101D7C00D4DAB5C4CEBBD6C3CAC7C9CFCFC2BEC5D1
:101D8C00B2BDD0D0BDD600CFD6D4DAB5C4CEBBD67A
:101D9C00C3CAC7C1F7CFAABAD3B9FABCD2C9ADC1AD
:101DAC00D6B9ABD4B000CFD6D4DAB5C4CEBBD6C37B
:071DBC00CAC7BBAAB9E3008E
:0A2634000534FD0000010001330031
:0F286A007598D8758920E4F587758DFDD28E227B
:082879008F993099FDC29922EC
:06213B008B208A2189229D
:10214100E4F523F524F525F526AB20AA21A922AF34
:102151002605268F827583001225B670ECE4F523DF
:10216100E523B4040BE53333333354F8F5258015F7
:10217100E523B40208E5262403F5258008743425F7
:1021810023F8E6F525E5256224FF1228797F017EF3
:10219100001226080523E523C3940540C3E4F52373
:1021A100E523C395265020AB20AA21A922852382AD
:1021B1007583001225B6FF62241228797F017E0003
:1021C100122608052380D9AF241228797F327E0098
:0A21D1001226087F327E0002260865
:1026E900C28C7BFF7A1C79CC12213B7F207E4E1253
:0526F9002608D28C222E
:1026FE00C28C7BFF7A1C79E112213B7F207E4E1229
:05270E002608D28C2218
:10271300C28C7BFF7A1C79F412213B7FA87E611265
:052723002608D28C2203
:10272800C28C7BFF7A1D790B12213B7F307E75129C
:052738002608D28C22EE
:10273D00C28C7BFF7A1D792412213B7FF07E5512CE
:05274D002608D28C22D9
:10275200C28C7BFF7A1D793712213B7F007E7D126E
:052762002608D28C22C4
:10276700C28C7BFF7A1D794E12213B7F207E4E1251
:052777002608D28C22AF
:10277C00C28C7BFF7A1D796312213B7F007E7D1218
:05278C002608D28C229A
:10279100C28C7BFF7A1D797A12213B7F107EA412B5
:0527A1002608D28C2285
:1027A600C28C7BFF7A1D799312213B7F207ECB1250
:0527B6002608D28C2270
:1027BB00C28C7BFF7A1D79B212213B7F207E4E1299
:0527CB002608D28C225B
:03000000022304D4
:0C230400787FE4F6D8FD75813802234B89
:1025B600BB010CE58229F582E5833AF583E02250DA
:1025C60006E92582F8E622BBFE06E92582F8E22224
:0D25D600E58229F582E5833AF583E493223E
:10231000022899E493A3F8E493A34003F68001F222
:1023200008DFF48029E493A3F85407240CC8C333CE
:10233000C4540F4420C8834004F456800146F6DF9D
:10234000E4800B0102040810204080902628E47EDF
:10235000019360BCA3FF543F30E509541FFEE49392
:10236000A360010ECF54C025E060A840B8E493A359
:10237000FAE493A3F8E493A3C8C582C8CAC583CA84
:10238000F0A3C8C582C8CAC583CADFE9DEE780BE3C
:01263E00009B
:00000001FF
