:1000C400E4FDFCC3ED9FEC9E5015E4FBFA0BBB0072
:0F00D400010AEB647B4A70F50DBD00010C80E45E
:0100E30022FA
:0B011600EF1FAC0670011E4C70F622BB
:10010300E4FDFCC3ED9FEC9E5008000DBD00010C07
:0201130080F179
:0101150022C7
:080121001200E412008F80FBC4
:03012900010800CA
:1000E40075D90275DA42E4F5F275EA8075FA80F59D
:0F00F400E9D2DE75BBBBF5B375B47275BB702274
:03012D008FFA2224
:030130008FFA2221
:10008F0020C5177FE87E0312011620C50A740525C7
:10009F0008F508FF12012D30C5FD20C6177FE87E39
:1000AF000312011620C60A74FB2508F508FF12017A
:0400BF003030C6FD1A
:0100C300221A
:03000000020003F8
:0C000300787FE4F6D8FD75810802004A01
:10000F00020121E493A3F8E493A34003F68001F2E5
:10001F0008DFF48029E493A3F85407240CC8C333F2
:10002F00C4540F4420C8834004F456800146F6DFC1
:10003F00E4800B0102040810204080900129E47E27
:10004F00019360BCA3FF543F30E509541FFEE493B6
:10005F00A360010ECF54C025E060A840B8E493A37D
:10006F00FAE493A3F8E493A3C8C582C8CAC583CAA8
:10007F00F0A3C8C582C8CAC583CADFE9DEE780BE60
:01012C0000D2
:00000001FF
