:10000300E4FDFCC3ED9FEC9E5015E4FBFA0BBB0033
:0F001300010AEB647B4A70F50DBD00010C80E41F
:0100220022BB
:0B04D700EF1FAC0670011E4C70F622F7
:10047E00E4FDFCC3ED9FEC9E5008000DBD00010C89
:02048E0080F1FB
:010490002249
:0F04A300A5A5A5A5A50000000000000000000011
:0E0491000541E7E7E7E7E7053CE7E7E7E7E7D0
:10044A00E4FEEF339293EF25E0FFD2923094054316
:0D045A00070180035307FEC2920EBE08E5A5
:010467002272
:1002BE00782B7C007D007BFF7A0479A37E007F057E
:1002CE001200F67B007A00792B7539057F30120308
:1002DE00497A00793012027CE4FF74302FF8E6B4CC
:1002EE00A5040FBF05F4EF640560037F01227F00B4
:0102FE0022DD
:1003A900782B7C007D007BFF7A0479A87E007F058D
:1003B9001200F67F647E0012047EC290C2917B0017
:0C03C9007A00792B7539057F1002028341
:0C04B200C29112044AE4FF12044AD291E5
:0104BE00221B
:100400007F241204177D287F251204177D207F3159
:070410001204177D0F7F2687
:10041700C29112044AAC07AF0512044AD291AF0445
:0104270022B2
:07027C007B007539057F10BE
:060283008B368A37893832
:10028900C29112044A753A008F3BE4FDFCC3ED9517
:1002990039EC9400501AE4FF12044AAB36AA37A984
:1002A900388D828C83EF1201350DBD00010C80DD84
:0402B900D291AF3BF4
:0102BD00221E
:090340007A00793C7539057F2A29
:10034900C29112044A753A008F3BE4FDFCC3ED9556
:1003590039EC9400501512011CFF12044A7401294A
:0F036900F9E43AFA0DBD00010C80E2D291AF3BEE
:010378002262
:1002FF00782B7C007D007BFF7A0479AD7E007F0533
:10030F001200F6C2907A00792B12027C7B00120346
:10031F0040E4FD7F211204170D7F221204177D1A6E
:10032F001204007F20120417D2907FC87E000204AF
:01033F007E3F
:060379008B2B8A2C892D5C
:10037F00E4FB7F071204B28F2EE52E30E612C290F7
:10038F00AB2BAA2CA92D7539207F611202837B011B
:09039F00AD2E7F27120417AF03F5
:0103A8002232
:1003D500C2907B007A0079417539057F3012034957
:1003E500120340E4FD7F211204177F221204171225
:0B03F50004001D7F20120417D290228C
:100428008B2B8A2C892DC2907B007A00794112038C
:1004380044AB2BAA2CA92D7539207FA0120349D2D1
:02044800902200
:10046800758920758DFD758BFDE4F587759850D2DB
:06047800AFD2ACD28E22CF
:0804E2008F993099FDC29922A7
:0B04BF00AF99C2988F993099FDC29947
:0104CA00220F
:0304EA00020157B5
:03049F00012A012E
:10015700D296E4F5081203A91204681202BEEF60F2
:1001670014C2A37FC87E00120003D2A37FC87E00FB
:1001770012000380E61202FF7B007A00790912035E
:1001870079EF7049E508B401EFC2AC1203D5E52950
:1001970024D0F52A7B007A00792A1204287F4F128F
:1001A70004E27F4B1204E27F3A1204E2AF29120401
:1001B700E27F0A1204E2C2967F2C7E01120003D26C
:1001C700967F2C7E01120003D2ACE4F508E509B452
:1001D70001A3E4F509C2967F2C7E01120003D29693
:0901E7007F2C7E01120003808CC4
:030023000204CB09
:0C04CB00309808C2988599297508013204
:030000000201F00A
:0C01F000787FE4F6D8FD758145020237E7
:10002600E709F608DFFA8046E709F208DFFA803EBC
:1000360088828C83E709F0A3DFFA8032E309F608A9
:10004600DFFA8078E309F208DFFA807088828C8311
:10005600E309F0A3DFFA806489828A83E0A3F608C5
:10006600DFFA805889828A83E0A3F208DFFA804C9F
:1000760080D280FA80C680D4806980F28033801076
:1000860080A680EA809A80A880DA80E280CA8033DF
:1000960089828A83ECFAE493A3C8C582C8CCC58357
:1000A600CCF0A3C8C582C8CCC583CCDFE9DEE78027
:1000B6000D89828A83E493A3F608DFF9ECFAA9F0A6
:1000C600EDFB2289828A83ECFAE0A3C8C582C8CCFC
:1000D600C583CCF0A3C8C582C8CCC583CCDFEADE15
:1000E600E880DB89828A83E493A3F208DFF980CC77
:1000F60088F0EF60010E4E60C388F0ED2402B40470
:100106000050B9F582EB2402B4040050AF23234516
:06011600822390007673C5
:10011C00BB010689828A83E0225002E722BBFE02E1
:09012C00E32289828A83E4932214
:10013500F8BB010DE58229F582E5833AF583E8F000
:10014500225006E92582C8F622BBFE05E92582C8AC
:02015500F22294
:1001FC000204EAE493A3F8E493A34003F68001F22B
:10020C0008DFF48029E493A3F85407240CC8C33303
:10021C00C4540F4420C8834004F456800146F6DFD2
:10022C00E4800B0102040810204080900491E47ECD
:10023C00019360BCA3FF543F30E509541FFEE493C7
:10024C00A360010ECF54C025E060A840B8E493A38E
:10025C00FAE493A3F8E493A3C8C582C8CAC583CAB9
:10026C00F0A3C8C582C8CAC583CADFE9DEE780BE71
:0104A2000059
:00000001FF
