:1000D80012013B7DF07C007FFF12003FE4F59000A9
:0900E8007FFF1200038F9080FEDF
:1000BA00D3EF9400EE940040147D6E7C00ED1D7029
:0D00CA00011CED4C70F7EF1F70E61E80E387
:0100D7002206
:07013B00D2A100D2A00022B6
:0A012700D2A000D2A100C2A1002264
:0A013100C2A100D2A000D2A100225A
:1000F100C2A000300004C2A18002D2A100D2A0009F
:07010100C2A000D2A1002200
:10010800D2A00030A108C2A000120131C322C2A0AF
:0301180000D322EF
:10009700E4FEC2A000EF30E705D2A1008003C2A1B1
:1000A70000D2A000EF25E0FF0EBE08E6C2A000D2F6
:0200B700A100A6
:0100B9002224
:10006E00C2A000D2A100E4FED2A00030A105430739
:10007E000180035307FE00C2A000EEC39407500494
:08008E00EF25E0FF0EBE08E0C3
:010096002247
:10003F008F088C098D0A1201277FA01200971201D9
:10004F0008400122AF08120097120108400122AFA9
:0F005F000A120097120108400122120131D32228
:020003008F0864
:100005001201277FA012009712010840037F0022EA
:10001500AF08120097C2001200F11201277FA1124A
:10002500009712010840037F002212006E8F09C25B
:09003500001200F1120131AF09C3
:01003E00229F
:0300000002011BDF
:0C011B00787FE4F6D8FD7581200200D842
:00000001FF
