:02229D000A0035
:101DF000122232121F7312226E121D52122037123B
:101E00001B4AE4900010F0A3F0900010E0FEA3E065
:101E1000FFC39411EE94005031900010E0FCA3E059
:101E2000FD2464F58274003CF583E02430FB7400EB
:101E30002DF582E43400F583EBF0900011E004F01E
:101E400070C7900010E004F080BF74002FF582E4AA
:101E50003400F583E4F07B017A0079001214867B6C
:101E6000FF7A22799D1214867B017A007900E4FDC5
:101E7000FCFF1218BF1219B11221377FA07E0F127A
:081E80002156121FFC021DFC9B
:1021E300D28312229AD28412229AC28312229AC2D0
:0421F3008402229AA6
:1021F700C28412229AC28312229AD28412229AD2BB
:042207008302229A92
:1020F800E4FEEF30E704D2838002C283D284C28434
:0F210800EF25E0FF0EEEB408E9C283D284C28453
:0121170022A5
:042295007F57DFFE92
:012299002222
:0C2254007F017EEA7D71DDFEDEFCDFFA1A
:01226000225B
:0C2261007F2E7E997DF5DDFEDEFCDFFAAD
:01226D00224E
:10215600D3EF9400EE940040147D6E7C00ED1D706C
:0D216600011CED4C70F7EF1F70E61E80E3CA
:012173002249
:10221F00E4FDFCC3ED9FEC9E5008000DBD00010CCA
:02222F0080F13C
:01223100228A
:03229A000000221F
:101D52007FF47E011221567FAE1220DBE4FF1220B7
:101D6200DB7F101220DB7F401220DB7F811220DB21
:101D72007FCF1220DB7FA11220DB7FC81220DB7F06
:101D8200A61220DB7FA81220DB7F3F1220DB7FD34D
:101D92001220DBE4FF1220DB7FD51220DB7F8012D2
:101DA20020DB7FD91220DB7FF11220DB7FDA1220C9
:101DB200DB7F121220DB7FDB1220DB7F401220DB75
:101DC2007F201220DB7F021220DB7F8D1220DB7F3F
:101DD200141220DB7FA41220DB7FA61220DB7FAF50
:0E1DE2001220DBE4FF121FBBE4FDFF022064B1
:1000030000000000000000000000000000000000ED
:1000130000000000000000000000000000000000DD
:10002300044444445F44C44444445F44C40404005B
:10003300000000000000FF00000810080700000097
:1000430008CC4A49484ACC18007F88888482E0005B
:1000530000FF121252927F00007E88888482E000A3
:100063000484E45C44C48082FE828282FE82800037
:1000730002017F10103F80601F000000FF0000009E
:10008300100C44241404E5060404142444140C0042
:1000930000804121110D030101013F4040407000E8
:1000A3000000FC242422E302FC444442C3424000F7
:1000B30040300F02028243300F000000FF000000B7
:1000C300000000000000000000000000000000002D
:1000D300000000000000000000000000000000001D
:1000E300000000000000000000000000000000000D
:1000F30000000000000000000000000000000000FD
:100103000000800000E002041800000040800000AE
:10011300100C0300003F40404040407800010E00B7
:10012300080888C8380C0B0808E8080808080800FD
:10013300020100FF40414141417F414141414000B3
:10014300404042CC00082848890EC83808080000FF
:100153000040201F20504844424142445840400040
:100163000000FE92929292FE92929292FE00000002
:10017300404044444444447F444444444440400055
:10018300404042CC00808888FF8888FF88888000B0
:100193000040201F2040504C4340405F40404000FF
:1001A300404042CC0000FF4949C949497F800000D3
:1001B3000040201F20405F484440414245584000D2
:1001C3000000F010101010FF10101010F0000000CD
:1001D3000000FF424242427F42424242FF0000008F
:1001E300008060F8074020180F08C8080828180086
:1001F300010000FF00100C0340807F00010618007F
:1002030000000000000000000000000000000000EB
:1002130000000000000000000000000000000000DB
:1002230000000000000000000000000000000000CB
:1002330000000000000000000000000000000000BB
:1002430000000000000000000000000000000000AB
:10025300000000000000000000000000000000009B
:10026300000000000000000000000000000000008B
:10027300000000000000000000000000000000007B
:10028300000000000000000000000000000000006B
:10029300000000000000000000000000000000005B
:1002A300000000000000000000000000000000004B
:1002B300000000000000000000000000000000003B
:1002C300000000000000000000000000000000002B
:1002D300000000000000000000000000000000001B
:1002E300000000000000000000000000000000000B
:1002F30000000000000000000000000000000000FB
:10030300008060F8074020180F08C8080828180064
:10031300010000FF00100C0340807F00010618005D
:10032300444444445FC4744444445F4444444400E8
:1003330010080402FF424242424242FE0000000013
:100343000000FC242424E4041F6484453684000054
:1003530044437848497A494C4A7948497A474000A6
:1003630080828282FE8282828282FE8282828000F8
:10037300008040300F0000000000FF00000000007C
:100383001060028C00445454547F5454544440002D
:1003930004047E010000FF15151555957F0000002C
:1003A3000000FE021222C202C23202FE000000005E
:1003B30080601F0020100C030C30000F3040F80049
:1003C300000000F8888C8A89888888F8000000007B
:1003D300000000FF44444444444444FF0000000040
:1003E30000080828C80808FF0808886808080000EB
:1003F30021211111090503FF030509111121210011
:100403000000000000000000002F000000000700B3
:10041300070000147F147F1400242A7F2A1200622D
:1004230064081323003649552250000005030000D9
:1004330000001C224100000041221C000014083E61
:1004430008140008083E0808000000A06000000827
:10045300080808080000606000000020100804027B
:10046300003E5149453E0000427F40000042615139
:100473004946002141454B31001814127F100027D3
:1004830045454539003C4A49493000017109050396
:1004930000364949493600064949291E00003636C7
:1004A300000000005636000000081422410000142A
:1004B3001414141400004122140800020151090607
:1004C30000324959513E007C1211127C007F494988
:1004D3004936003E41414122007F4141221C007FB9
:1004E30049494941007F09090901003E4149497AC7
:1004F300007F0808087F0000417F41000020404141
:100503003F01007F08142241007F40404040007FAC
:10051300020C027F007F0408107F003E4141413EF0
:10052300007F09090906003E4151215E007F091938
:1005330029460046494949310001017F0101003F35
:100543004040403F001F2040201F003F4038403FB5
:100553000063140814630007087008070061514919
:10056300454300007F41410000552A552A550000AC
:1005730041417F000004020102040040404040402A
:10058300000001020400002054545478007F4844C2
:10059300443800384444442000384444487F0038F9
:1005A3005454541800087E0901020018A4A4A47C22
:1005B300007F080404780000447D400000408084EC
:1005C3007D00007F102844000000417F4000007C34
:1005D30004180478007C0804047800384444443840
:1005E30000FC242424180018242418FC007C08048C
:1005F300040800485454542000043F444020003C65
:100603004040207C001C2040201C003C4030403CEB
:10061300004428102844001CA0A0A07C004464547B
:100623004C441414141414140000000000000000BF
:100633000000000000000000000000F800000000BF
:10064300000000333000000000100C06100C060000
:10065300000000000000000040C07840C078400067
:10066300043F04043F040400007088FC08300000C9
:10067300001820FF211E0000F008F000E018000021
:1006830000211C031E211E0000F0088870000000DA
:100693001E2123241927211010160E00000000002C
:1006A3000000000000000000000000E01804020049
:1006B300000000071820400000020418E0000000BA
:1006C3000040201807000000404080F080404000B8
:1006D3000202010F01020200000000F0000000000E
:1006E3000101011F010101000000000000000000E2
:1006F30080B0700000000000000000000000000057
:1007030000010101010101010000000000000000DF
:10071300003030000000000000000000806018047A
:10072300006018060100000000E010080810E00057
:10073300000F102020100F00001010F80000000020
:100743000020203F20200000007008080888700067
:1007530000302824222130000030088888483000E7
:100763000018202020110E000000C02010F8000007
:1007730000070424243F240000F8088888080800A0
:100783000019212020110E0000E0108888180000B5
:10079300000F112020110E0000380808C838080087
:1007A3000000003F00000000007088080888700007
:1007B300001C222121221C0000E010080810E00088
:1007C3000000312222110F00000000C0C000000011
:1007D3000000003030000000000000800000000036
:1007E300000080600000000000008040201008002E
:1007F30000010204081020004040404040404000F7
:1008030004040404040404000008102040800000D1
:100813000020100804020100007048080808F000D6
:100823000000003036010000C030C828E810E000A6
:100833000718272423140B000000C038E000000031
:10084300203C23020227382008F88888887000009B
:10085300203F202020110E00C0300808080838006F
:10086300071820202010080008F808080810E000E6
:10087300203F202020100F0008F88888E808100087
:10088300203F20202320180008F88888E80810005B
:10089300203F200003000000C03008080838000093
:1008A30007182020221E020008F808000008F80894
:1008B300203F210101213F20000808F8080800001B
:1008C3000020203F2020000000000808F80808004E
:1008D300C08080807F00000008F888C028180800C6
:1008E300203F20012638200008F8080000000000FF
:1008F300203F20202020300008F8F800F8F80800F6
:10090300203F003F003F200008F830C00008F808EF
:10091300203F200007183F00E01008080810E000FF
:100923000F10202020100F0008F808080808F00016
:10093300203F210101010000E01008080810E00039
:100943000F18242438504F0008F8888888887000CE
:10095300203F2000030C302000708808080838006E
:100963000038202121221C00180808F80808180064
:100973000000203F2000000008F808000008F808E5
:10098300001F202020201F000878880000C8380896
:10099300000007380E010000F80800F80008F8000E
:1009A300033C0700073C03000818688080681808A8
:1009B30020302C03032C30200838C800C838080026
:1009C3000000203F2000000010080808C838080075
:1009D3002038262120201800000000FE0202020019
:1009E3000000007F40404000000C30C000000000C9
:1009F300000000010638C00000020202FE000000F1
:100A0300004040407F000000000004020202040096
:100A130000000000000000000000000000000000D3
:100A230080808080808080800002020400000000BB
:100A330000000000000000000000808080800000B3
:100A43000019242222223F2008F8008080000000A1
:100A5300003F112020110E00000000808080000064
:100A6300000E112020201100000000808088F80073
:100A7300000E112020103F200000808080800000A5
:100A8300001F222222221300008080F08888881809
:100A93000020203F20200000000080808080800014
:100AA300006B94949493600008F8008080800000A9
:100AB300203F210000203F20008098980000000084
:100AC3000020203F202000000000008098980000B4
:100AD30000C08080807F000008F8000080808000D4
:100AE300203F24022D302000000808F800000000F9
:100AF3000020203F202000008080808080808000B4
:100B0300203F20003F20003F808000808080000045
:100B1300203F210000203F200000808080800000D3
:100B2300001F202020201F00808000808000000004
:100B330080FFA12020110E00000000808080800033
:100B4300000E112020A0FF80808080008080800024
:100B530020203F2120000100000080808080800051
:100B63000033242424241900008080E080800000C6
:100B73000000001F20200000808000000080800013
:100B8300001F202020103F20808080000080808074
:100B930000010E3008060100808000800080808004
:100BA3000F300C030C300F00008080008080800029
:100BB3000020312E0E312000808080000080808054
:100BC30080818E7018060100008080808080800004
:100BD3000021302C2221300000000000807C020222
:100BE30000000000003F404000000000FF00000044
:100BF30000000000FF0000000002027C80000000F3
:100C03000040403F0000000000060101020204040E
:100C130000000000000000000003050911FF118916
:100C230005C300E000F000F80000000000000044ED
:100C330028FF11AA4400000000000000000000008B
:100C430000000000000000000000000000000000A1
:100C53000000000000000000000000000000000091
:100C63000000000000000000000000000000000081
:100C730000008301384482929274018300000000D3
:100C83000000007C44C7017D7D7D7D017D7D7D7DF0
:100C9300017D7D7D7D01FF0000000000000100015A
:100CA300000100010001000100000000000000003D
:100CB300000101000000000000000000000000002F
:100CC3000000000000000000000000000000000021
:100CD3000000000000000000000000000000000011
:100CE3000000000000000000000000000000000001
:100CF30000000101000000000000010100000000ED
:100D030000000000000101010101010101010101D5
:100D130001010101010101000000000000000000C9
:100D230000404040404000006D6D6D6D6D000060FF
:100D330060606060000040404040400000000000F0
:100D430000000000000000000000000000000000A0
:100D53000000000000000000000000000000000090
:100D63000000000000000000000000000000000080
:100D73000000000000000000000000000000000070
:100D83000000000000000000000000000000000060
:100D93000000000000000000000000000000000050
:100DA30000DBDBDBDBDB0000DBDBDBDBDB0000DBD7
:100DB300DBDBDBDB0000DBDBDBDBDB0000DADADAEF
:100DC300DADA0000D8D8D8D8D80000C0C0C0C0C074
:100DD3000000C0C0C0C0C00000C0C0C0C0C0000090
:100DE300C0C0C0C0C00000808080808000000000C0
:100DF30000000000000000000000000000000000F0
:100E030000000000000000000000000000000000DF
:100E130000000000000000000000000000000000CF
:100E2300000606060606000006060606060000067D
:100E33000606060600000606060606000006060667
:100E4300E6662000060686060600000606060686F7
:100E530000000606060606000086868686868080D3
:100E63008686068686C0C08686860606D0307606C7
:100E73000606060000060606060600000606060627
:100E8300060000060606060600000606060606001D
:100E9300000000000000000000000000000000004F
:100EA300000000000000000000000000000000003F
:100EB300000000000000000000000000000000002F
:100EC3000000601C00FE00010200C41820029E63A3
:100ED300B20E00FF8181FF00008040300F00000050
:100EE30000FF0023EAAABFAAEA033F00FF000000B5
:100EF30000000000000000000000000000000000EF
:100F030000000000000000000000000000000000DE
:100F1300000000000000000000000080808000004E
:100F2300000000808080000000000000000000003E
:100F330000000000000000000000000000000000AE
:100F43000E0C080000010101010100000001000076
:100F53000001008180808180818080808001010187
:100F6300010000000100000001000101090C0E0056
:100F7300000000000000000000000000000000006E
:100F8300C0C0C0C0C0C0C0C0C0C0C0C0C0C0C0C05E
:100F9300C0C0C0C0C0C0C000001E21404050215E80
:100FA300001E21404050215E0000000000000000B0
:100FB300000000000000000000000000000000002E
:100FC300000000000000000000000000000000001E
:100FD300000000FFFFC1C1FFFFC1C1FFFF00000010
:100FE30000000000000000000000000000000000FE
:100FF30000000000000000000000000000000000EE
:10100300FFFF80FCF3EFF3FC80FF80EEEEEEF5FBD9
:10101300FF9CBEB6B688FF000003050911FF1189C6
:1010230005C300E000F000F80000000000000044E9
:1010330028FF11AA44000000000000000000000087
:10104300000000000000000000000000000000009D
:10105300000000000000000000000000000000008D
:10106300000000000000000000000000000000007D
:1010730000008301384482929274018300000000CF
:101083000000007C44FF017D7D7D7D017D7D7D7DB4
:10109300017D7D7D7D01FF00000000000001000156
:1010A3000001000100010001000000000000000039
:1010B300000101000000000000000000000000002B
:1010C300000000000000000000000000000000001D
:1010D300000000000000000000000000000000000D
:1010E30000000000000000000000000000000000FD
:1010F30000000101000000000000010100000000E9
:1011030000000000000101010101010101010101D1
:1011130001010101010101000000000000000000C5
:1011230000000000000000000000000000000000BC
:1011330000000000000000F808080808080808007C
:10114300F8186080000000806018F800000020207C
:10115300F8000000000000E0100808080810E00094
:1011630000002020F8000000000000000000000044
:10117300000808080808886818000000000000003C
:10118300000000000000000000000000000000005C
:10119300000000000000000000000000000000004C
:1011A300000000000000000000000000000000003C
:1011B300000000000000007F0101010101010000A7
:1011C3007F0000010618060100007F000000404078
:1011D3007F4040000000001F2040404040201F008F
:1011E300000040407F40400000000000600000001D
:1011F300000000601806010000000000000000006D
:1012030000000000000000000000000000000000DB
:1012130000000000000000000000000000000000CB
:1012230000000000000000000000000000000000BB
:10123300000000000000000000000000004020202B
:1012430020C00000E0202020E000000040E000007B
:10125300000060202020E00000000000E0202020AB
:10126300E0000000000040202020C00000402020BB
:1012730020C000000000000000000000000000008B
:10128300000000000000000000000000000000005B
:10129300000000000000000000000000000000004B
:1012A300000000000000000000000000000000003B
:1012B300000000000000000000000000000C0A0A0B
:1012C300090C00000F0808080F000000080F0800B1
:1012D30000000C0809090E00000C00000F090909A1
:1012E3000F00000C00000C0A0A090C00000C0A0A8B
:1012F300090C0000000000000000000000000000D6
:1013030000000000000000000000000000000000DA
:1013130000000000000000000000000000000000CA
:1013230000000000000000000000000000000000BA
:1013330000000000000000000000000000000000AA
:10134300000000000000000000000000000000009A
:10135300000000008080808080808080000000008A
:10136300000000000000000000000000000000007A
:10137300000000000000000000000000000000006A
:10138300000000000000000000000000000000005A
:101393000000000000000000007F030C300C037FFE
:1013A30000003854545800007C04047800003C408A
:1013B300407C00000000000000000000000000006E
:1013C300000000000000000000000000000000001A
:1013D30000000000FFAAAAAA280800FF00000000DE
:1013E30000000000000000000000000000000000FA
:1013F30000000000000000000000000000000000EA
:10140300007F030C300C037F00002649494932005A
:08141300007F020408107F00B5
:0420D700EF24B0FF43
:1020DB0090001CEFF01221E37F781220F8E4FF123E
:0D20EB0020F890001CE0FF1220F80221F701
:1021920090001BEFF01221E37F781220F87F4012AB
:0D21A20020F890001BE0FF1220F80221F74A
:1020640090001BEFF0ED24B0FF1220DB90001BE08A
:1020740054F0C4540F4410FF1220DB90001BE054B2
:072084000F4401FF0220DB05
:051FBB00900012EFF0A0
:101FC000E4A3F0900013E0FFC39408502E1220D732
:101FD0007F011220DB7F101220DBE4900014F090D0
:101FE0000012E0FF122192900014E004F0E0C3948C
:0B1FF0008040EC900013E004F080C87B
:011FFB0022C3
:101FFC00E4900012F0900012E0FFC39408502B12F2
:10200C0020D77F011220DB7F101220DBE49000131D
:10201C00F0E4FF122192900013E004F0E0C39480EE
:0A202C0040EF900012E004F080CBBA
:012036002287
:08228D00000102040503061123
:10220B00500064000000000000000000000000000F
:03221B00000000C0
:0522790012227ED2C01C
:05227E00000000002239
:0F224500D2C1D2C012227EC2C112227EC2C022DA
:0A228300C2C1122279D2C102227EEC
:0821AF001222457FD0122174B9
:1021B700D2C1122279A2C1920012227EC2C012227B
:0321C7007EA200F5
:0121CA0022F2
:10217400E4FEEF30E704D2C18002C2C1122279C268
:0D218400C012227EEF25E0FF0EEEB408E54C
:01219100222B
:10211800E4FED2C012227EEF25E0FF12227E30C1FB
:0E212800034401FFC2C012227E0EEEB408E492
:012136002286
:1021CB00AC071221AFAF041221741221B7AF051265
:0821DB0021741221B7022283D6
:0220B200AD0778
:1020B4001221AFAF051221741221B712228312220A
:1020C400457FD11221741221B712211812227E12D7
:0220D400228365
:0120D60022E7
:10203700E4FCEC90228D93FF1220B2EFC4540FFE04
:10204700EF540FFDEE75F00AA42DFB74742CF58286
:0C205700E43400F583EBF00CECB408D688
:01206300225A
:101F1400E4FB74742BF582E43400F583E0FF75F080
:101F24000A84FEEF75F00A84747C2BF582E4340095
:101F3400F583E5F0F0EEC454F0FF747C2BF582E4F5
:101F44003400F583E02FF00BEBB407C6E4FBEB9011
:101F5400228D93FF747C2BF582E43400F583E0FD3D
:0F1F64001221CB0BEBB407E67D0C7F0E0221CBD5
:0B226E00D2C1D2C07D0C7F0E0221CB3C
:101F730012203790007AE0703E900079E07038903C
:101F83000078E07032900077E0702C900076E0707B
:101F930026900075E07020900074E0701AF0A3F0B2
:101FA300A3740CF0A37403F0A3740BF0A37402F0F6
:081FB300A3740FF0121F1422A9
:101B4A009000647402F0E4A3F090007AE0FF75F06C
:101B5A000A84900066F0EF75F00A84A3E5F0F0902D
:101B6A000078E0FF75F00A84900068F0EF75F00ADB
:101B7A0084A3E5F0F0900077E0FF75F00A84900006
:101B8A006AF0EF75F00A84A3E5F0F0900076E0FFC2
:101B9A0075F00A8490006CF0EF75F00A84A3E5F002
:101BAA00F0900075E0FF75F00A8490006EF0EF7512
:101BBA00F00A84A3E5F0F0900074E0FF75F00A845F
:101BCA00900070F0EF75F00A84A3E5F0F0900079C8
:101BDA00E0FF75F00A84900072F0EF75F00A84A3B2
:101BEA00E5F0F090007BE075F00A84900074F090C4
:0E1BFA00007BE075F00A84900075E5F0F022A3
:101C0800900092EFF0A3ECF0A3EDF0A3EBF0A3EAC1
:041C1800F0A3E9F05C
:101C1C00E4A3F0A3F0A3F0900095E0FBA3E0FAA3FB
:101C2C00E0F990009AE0F5827583001217806074D9
:101C3C0024E0900098F0900092E0D3947E4010E461
:101C4C00F0900094E004F07006900093E004F090A3
:101C5C000092E0FFA3A3E0FD122064E4900099F051
:101C6C00900099E0FFC39406502A900098E075F01C
:101C7C0006A42403F582E5F03404F583E5822FF500
:101C8C0082E43583F583E493FF122192900099E06E
:101C9C0004F080CC900092E02406F090009AE004CE
:041CAC00F0021C2303
:011CB0002211
:1018BF00900012EFF0A3ECF0A3EDF0A3EBF0A3EA8E
:0418CF00F0A3E9F0A9
:1018D300E4A3F0A3F0A3F0900015E0FBA3E0FAA3C8
:1018E300E0F990001AE0F582758300121780700307
:1018F3000219B024E0900018F0900012E0D394781D
:101903004010E4F0900014E004F07006900013E03F
:1019130004F0900012E0FFA3A3E0FD122064E49022
:101923000019F0900019E0FFC39408502A900018A2
:10193300E075F010A42FF582E435F0F583E58224F9
:101943002BF582E5833406F583E493FF122192900D
:101953000019E004F080CC900012E0FFA3A3E004A0
:10196300FD122064E4900019F0900019E0FFC39485
:1019730008502A900018E075F010A42FF582E43582
:10198300F0F583E5822433F582E5833406F583E4B9
:1019930093FF122192900019E004F080CC90001282
:0D19A300E02408F090001AE004F00218DAC9
:0119B0002214
:0C1CB10090009BEFF0F9A3ECF0A3EDF025
:101CBD00E4A3F0AE02EB7805C333CE33CED8F9FFF3
:101CCD0090009FEEF0A3EFF0AF01122064E49000BE
:101CDD009EF090009FE0FEA3E02403F58274003E89
:101CED00F583E493FF1221929000A0E004F07006BA
:101CFD0090009FE004F090009EE004F0E0C394108B
:101D0D0040D090009BE0FFA3A3E004FD122064E40B
:101D1D0090009EF090009FE0FEA3E02403F58274F6
:101D2D00003EF583E493FF1221929000A0E004F0B1
:101D3D00700690009FE004F090009EE004F0E0C378
:041D4D00941040D0DE
:011D5100226F
:101A7E00900084EFF0A3ECF0A3EDF0A3EAF0A3EB5B
:011A8E00F067
:101A8F00E490008EF0A3F0900089E0FAA3E0FB7CD5
:101A9F00007D08FFAE021217ADED4C7011FC7D08F2
:101AAF00AF03AE021217AD900091EFF080159000CA
:101ABF0089E0FEA3E0FF7C007D081217ADEF0490D4
:101ACF000091F0900085A3E0900091F0900091E0DC
:101ADF00FDFFD390008AE09F7480F8900089E06446
:101AEF0080984056900084E0FF122064900084E0BC
:101AFF00900090F0900090E0FFD3900088E09F74EA
:101B0F0080F8900087E0648098402790008BE0FB7E
:101B1F00A3E0FAA3E0F9A3E475F0011217E385F04F
:101B2F0082F583121780FF122192900090E004F04B
:0A1B3F0080C2900091E004F0809253
:011B49002279
:02229F000A0033
:1019B100900064E02430900049F0900065E024300C
:1019C10090004AF0900066E0243090004BF09000C7
:1019D10067E0243090004CF0E4A3F0900068E0242C
:1019E1003090003FF0900069E02430900040F0E436
:1019F100A3F090006AE02430900053F090006BE077
:101A01002430900054F0E4A3F090006CE024309076
:101A11000058F090006DE02430900059F0E4A3F0FC
:101A210090006EE0243090005FF090006FE0243071
:101A3100900060F0E4A3F0900070E0243090003A50
:101A4100F0900071E0243090003BF0E4A3F09000AE
:101A510072E02430900044F0900073E02430900054
:101A610045F0E4A3F0900074E0243090004EF09033
:0D1A71000075E0243090004FF0E4A3F02257
:102137007B017A00793FE4FDFCFF1218BF7B017A2F
:0F2147000079441214867BFF7A22799F02148656
:10223200438920439850758DFD758BFDD28ED299BE
:03224200D2AF22F6
:03000000021E8855
:0C1E8800787FE4F6D8FD758121021ECFA2
:10178000BB010CE58229F582E5833AF583E022501E
:1017900006E92582F8E622BBFE06E92582F8E22268
:0D17A000E58229F582E5833AF583E4932282
:1017AD00C2D5EC30E709B2D5E4C39DFDE49CFCEE57
:1017BD0030E715B2D5E4C39FFFE49EFE121824C393
:1017CD00E49DFDE49CFC800312182430D507C3E48E
:0617DD009FFFE49EFE22C6
:1017E300A3F8E0C5F025F0F0E582158270021583B9
:0617F300E0C838F0E82216
:10141B00E5082415F582E43400F583E005082290F5
:10142B000012300703900015E475F00112187902D1
:10143B0017F92000E97F2ED2008018EF540F24906B
:10144B00D43440D4FF30040BEF24BFB41A00500344
:10145B002461FFE50960021509050CE50C70020516
:10146B000B30070E900012E475F001121879EF02A1
:10147B00181202208B7403D2078003E4C207F5080D
:10148B00900012121890E4F509F50BF50CE50960C4
:10149B00077F2012145E80F5750AFFC201C200C2DD
:1014AB0002C203C205C206C20812142AFF700D3015
:1014BB0007057F0012146FAF0CAE0B22B4255FC271
:1014CB00D5C20412142AFF24D0B40A00501A75F0A6
:1014DB000A780930D50508B6FF0106C6A426F62002
:1014EB00D5047002D20380D924CFB41A00EF500474
:1014FB00C2E5D204021670D20180C6D20080C0D2DF
:10150B000280BCD2D580BAD20580B47F2012145E83
:10151B002002077401B5090040F112141BFF1214CD
:10152B005E021498D208D206809512141BFB12147B
:10153B001BFA12141BF94A4B700679417A177BFF81
:10154B0020022EE509602A7E008E82758300121719
:10155B008060060EEE650A70F0C2D5EBC0E0EAC003
:10156B00E0E9C0E0EE1216B7D0E0F9D0E0FAD0E037
:10157B00FB1217F9FF60AAEBC0E0EAC0E0E9C0E09C
:10158B0012145ED0E02401F9D0E03400FAD0E0FB75
:10159B00E50A0460DCD50AD980877BFF7A1679B31C
:1015AB00D202809C791080027908C206C20880089A
:1015BB00D2D5790A8004790AC2D5E50A047002F5FE
:1015CB000AE4FAFDFEFF12141BFC7B082001131228
:1015DB00141BFD7B1030000A12141BFE12141BFF90
:1015EB007B20EC3382D592D55013C3E43000069F99
:1015FB00FFE49EFEE42001039DFDE49CFCE4CBF89C
:10160B00C201EC700CCFCECDCCE824F8F870F3808F
:10161B0017C3EF33FFEE33FEED33FDEC33FCEB334F
:10162B00FB994002FB0FD8E9EB300105F8D0E0C481
:10163B0048B201C0E00AEC4D4E4F78207B0070C2DF
:10164B00EAB50A0040BCC0E01216B9D0F0D0E020D9
:10165B000104C4C0E0C4B201C0F0121447D0F0D5ED
:10166B00F0EB02149812189915355315AF5815064F
:10167B004C15024215B34F15BB4415BB49151B4303
:08168B0015C15515A54615A572
:101693004515A547176150150A2D150E2E15312B2B
:1016A300151223152F20174A2A14CA48000015299A
:1016B3003F3F3F00790AA2D5200314300509B91032
:1016C300020404B9080104A2D52006025001042033
:1016D30002689202B509005034C0E07F203003193C
:1016E3007F30A20272067205500F121710C202C297
:1016F30006C205C2087F30800F300503E9C0E0123F
:10170300145E300503D0E0F9D0E0B509CC300517FD
:101713007F30B9100C12145E7F583004077F788035
:1017230003B9080312145E3002057F2D02145E7F95
:10173300202008F87F2B2006F322920280CF286E08
:10174300756C6C2900D20112141B3001F8C20178A8
:101753000930D50108F60214CA2D50434958121412
:101763001B2403B405004001E490175C9312144F4B
:0D177300743A12144FD2037509040215AF29
:101E9400021DF0E493A3F8E493A34003F68001F257
:101EA40008DFF48029E493A3F85407240CC8C3334F
:101EB400C4540F4420C8834004F456800146F6DF1E
:101EC400E4800B010204081020408090220BE47E81
:101ED400019360BCA3FF543F30E509541FFEE49313
:101EE400A360010ECF54C025E060A840B8E493A3DA
:101EF400FAE493A3F8E493A3C8C582C8CAC583CA05
:101F0400F0A3C8C582C8CAC583CADFE9DEE780BEBC
:01221E0000BF
:1017F900BB010689828A83E0225002E722BBFE02EE
:09180900E32289828A83E4932220
:10181200BB010689828A83F0225002F722BBFE01B5
:02182200F322AF
:10182400BC000BBE0029EF8DF084FFADF022E4CCA8
:10183400F875F008EF2FFFEE33FEEC33FCEE9DEC71
:10184400984005FCEE9DFE0FD5F0E9E4CEFD22EDB7
:10185400F8F5F0EE8420D21CFEADF075F008EF2F01
:10186400FFED33FD4007985006D5F0F222C398FDF2
:051874000FD5F0EA228F
:10187900F8E0FBA3A3E0F925F0F0E58215827002F8
:071889001583E0FA38F0229C
:09189000EBF0A3EAF0A3E9F02259
:10189900D083D082F8E4937012740193700DA3A3DE
:1018A90093F8740193F5828883E4737402936860F2
:0618B900EFA3A3A380DFF2
:10208B00EFB40A07740D122096740A309811A899B0
:10209B00B8130CC2983098FDA899C298B811F630B5
:0720AB0099FDC299F599228D
:00000001FF
