:10045B00E4FDFCC3ED9FEC9E5015E4FBFA0BBB00D7
:0F046B00010AEB647B4A70F50DBD00010C80E4C3
:01047A00225F
:0B04F900EF1FAC0670011E4C70F622D5
:1004AF00E4FDFCC3ED9FEC9E5008000DBD00010C58
:0204BF0080F1CA
:0104C1002218
:0F04D100A5A5A5A5A500000000000000000000E3
:0E04C200053FE7E7E7E7E7053AE7E7E7E7E7A3
:10047B00E4FEEF339293EF25E0FFD29230940543E5
:0D048B00070180035307FEC2920EBE08E574
:010498002241
:1002CF0078297C007D007BFF7A0479D17E007F0541
:1002DF001200D37B007A0079297537057F3012031E
:1002EF005A7A00792E12028DE4FF742E2FF8E6B49D
:1002FF00A5040FBF05F4EF640560037F01227F00A3
:01030F0022CB
:1003BA0078297C007D007BFF7A0479D67E007F0550
:1003CA001200D37F647E001204AFC290C2917B00F8
:0C03DA007A0079297537057F1002029423
:0C04E000C29112047BE4FF12047BD29155
:0104EC0022ED
:100411007F241204287D287F251204287D207F3126
:070421001204287D0F7F2665
:10042800C29112047BAC07AF0512047BD291AF04D2
:0104380022A1
:07028D007B007537057F10AF
:060294008B348A35893627
:10029A00C29112047B7538008F39E4FDFCC3ED95D9
:1002AA0037EC9400501AE4FF12047BAB34AA35A948
:1002BA00368D828C83EF1201120DBD00010C80DD98
:0402CA00D291AF39E5
:0102CE00220D
:090351007A00793A7537057F2A1C
:10035A00C29112047B7538008F39E4FDFCC3ED9518
:10036A0037EC940050151200F9FF12047B7401292E
:0F037A00F9E43AFA0DBD00010C80E2D291AF39DF
:010389002251
:1003100078297C007D007BFF7A0479DB7E007F05F5
:100320001200D3C2907A00792912028D7B00120349
:1003300051E4FD7F211204280D7F221204287D1A2A
:100340001204117F20120428D2907FC87E0002047C
:01035000AFFD
:06038A008B298A2A892B51
:10039000E4FB7F071204E08F2CE52C30E612C290BC
:1003A000AB29AA2AA92B7537207F611202947B0101
:0903B000AD2C7F27120428AF03D5
:0103B9002221
:1003E600C2907B007A00793F7537057F3012035A39
:1003F600120351E4FD7F211204287F2212042812E1
:0B04060004111D7F20120428D2902258
:100439008B298A2A892BC2907B007A00793F120383
:1004490055AB29AA2AA92B7537207FA012035AD2A6
:020459009022EF
:10049900758920758DFD758BFDE4F587759850D2AA
:0604A900AFD2ACD28E229E
:080504008F993099FDC2992284
:0B04ED00AF99C2988F993099FDC29919
:0104F80022E1
:03050C00020134B5
:01050F0001EA
:1001340078087C007D007BFF7A05790F7E007F01C3
:100144001200D31203BAD2961202CFEF6014C2A3E4
:100154007FC87E0012045BD2A37FC87E0012045BBA
:1001640080E61203107B007A00790912038AEF708B
:100174002D20B7F17F05FE12045B20B7E830B7FDF0
:100184001203E67B007A007908120439C2967F2CA8
:100194007E0112045BD2967F2C7E0112045BE5097A
:1001A40060C024FE601714602424027038E4F5094A
:1001B400C2807F2C7E0112045BD280801EE4F5098C
:1001C400C2817F2C7E0112045BD281800EE4F5098A
:1001D400C2827F2C7E0112045BD2827F2C7E0112AC
:1001E400045B020166E4F509C2837F2C7E011204DC
:0D01F4005BD2837F2C7E0112045B0201664A
:03000000020201F8
:0C020100787FE4F6D8FD758143020248C6
:10000300E709F608DFFA8046E709F208DFFA803EDF
:1000130088828C83E709F0A3DFFA8032E309F608CC
:10002300DFFA8078E309F208DFFA807088828C8334
:10003300E309F0A3DFFA806489828A83E0A3F608E8
:10004300DFFA805889828A83E0A3F208DFFA804CC2
:1000530080D280FA80C680D4806980F28033801099
:1000630080A680EA809A80A880DA80E280CA803302
:1000730089828A83ECFAE493A3C8C582C8CCC5837A
:10008300CCF0A3C8C582C8CCC583CCDFE9DEE7804A
:100093000D89828A83E493A3F608DFF9ECFAA9F0C9
:1000A300EDFB2289828A83ECFAE0A3C8C582C8CC1F
:1000B300C583CCF0A3C8C582C8CCC583CCDFEADE38
:1000C300E880DB89828A83E493A3F208DFF980CC9A
:1000D30088F0EF60010E4E60C388F0ED2402B40493
:1000E3000050B9F582EB2402B4040050AF2323453A
:0600F3008223900053730C
:1000F900BB010689828A83E0225002E722BBFE0205
:09010900E32289828A83E4932237
:10011200F8BB010DE58229F582E5833AF583E8F023
:10012200225006E92582C8F622BBFE05E92582C8CF
:02013200F222B7
:10020D0002050CE493A3F8E493A34003F68001F2F6
:10021D0008DFF48029E493A3F85407240CC8C333F2
:10022D00C4540F4420C8834004F456800146F6DFC1
:10023D00E4800B01020408102040809004C2E47E8B
:10024D00019360BCA3FF543F30E509541FFEE493B6
:10025D00A360010ECF54C025E060A840B8E493A37D
:10026D00FAE493A3F8E493A3C8C582C8CAC583CAA8
:10027D00F0A3C8C582C8CAC583CADFE9DEE780BE60
:0104D000002B
:00000001FF
