:0E0D6800060800010001000104130001000153
:100D9600758DFD858D8B438920759850D2ACD28E8A
:050DA600D299D2AF223A
:100D5000E4F5B2F5B11205107FE87E03120CBC7FFA
:080D6000E87E03120CBC80EDDB
:10000300060909E6F80C040202020202041E0000BB
:10001300000000071F3020404040404020100000F7
:10002300F008F0806018000000310C031E211E0050
:10003300000000000000000000303000000000005D
:10004300000000000000007F0808087F001CA0A03B
:10005300A07C0018A4A4A47C007C08040408003835
:100063004444443800043F444020007F080404789B
:10007300003854545418007C08040408007C041805
:1000830004780038444444380018A4A4A47C007CB9
:100093000804040800205454547800FC2424241831
:1000A300007F0804047800E010080810E000000F47
:1000B300102020100F0000001010F80000000000B6
:1000C30020203F202000007008080808F0000030BE
:1000D3002824222130000030080808887000001806
:1000E300202121221C000000804030F8000000067F
:1000F3000524243F242400F8888888080800001970
:10010300202020110E0000E0108888900000000FCE
:10011300112020201F00001808088868180000001C
:10012300003E010000000070880808887000001C71
:10013300222121221C0000F008080810E000000121
:10014300122222110F000000000000000000000036
:10015300000000000000000000000000000000009C
:1001630000000000000008F8080000000000203F25
:1001730020202020300000809898000000000020FC
:10018300203F202000008080008080800000203FEE
:10019300210000203F2080808000008080808081BB
:1001A3008E70180601000000808080800000001916
:1001B300242222223F208080800080808000202013
:1001C3003F212000010000000000000000000000AB
:1001D30000000000000008F8080000000000203FB5
:1001E3002020202030000000808080800000001943
:1001F300242222223F2008F8008080000000003FD4
:10020300112020110E00000000000000000000304B
:10021300300000000000180808F808081800000063
:10022300203F2000000008F88888E8081000203FDD
:1002330020202320180008F8F800F8F80800203FD1
:10024300003F003F200008F808080808F000203F9E
:10025300210101010000000000C0C00000000000F7
:1002630000303000000008F8888888887000203F3C
:100273002000030C302008F808000008F808203F8D
:10028300210101213F2000000000000000000000C8
:10029300000000000000000000C0C00000000000DB
:1002A30000303000000000000000000000000000EB
:1002B300000000000000000000000000000000003B
:1002C300000000000000044444445F44C444444428
:1002D3005F44C4040400000000000000FF000008A5
:1002E30010080700000008CC4A49484ACC18007F90
:1002F30088888482E00000FF121252927F00007E01
:1003030088888482E0000484E45C44C48082FE82A2
:100313008282FE82800002017F10103F80601F00F6
:100323000000FF000000100C44241404E50604043C
:10033300142444140C0000804121110D0301010118
:100343003F40404070000000FC242422E302FC44B0
:100353004442C342400040300F02028243300F0048
:100363000000FF000000000000000000000000008B
:10037300000000000000000000000000000000007A
:10038300000000000000000000000000000000006A
:10039300000000000000000000000000000000005A
:0603A30000000000000054
:080D7600063500080808080812
:060B3D008F3B8C3C8D3D56
:100B4300E4F53EF53FF53FAD3DAF3B120D19E4F53E
:100B53003E75F006E53FA4253EF582E435F0F583C6
:100B6300E5822443F582E5833400F583E493FF12A1
:100B73000D7F053EE53EC3940640D67406253BF53E
:0A0B83003B053FE53FC3941140BD60
:010B8D002245
:060BDB008F408C418D42A9
:100BE100E4F543F544F544AD42AF40120D19E4F587
:100BF1004374352543F8E6FF120D7F0543E543C3F2
:100C0100940640ED74062540F5400544E544C3943F
:030C11001240D4BA
:010C140022BD
:0607F0008F458C468D4789
:1007F600E4F548F549F549AD47AF45120D19E4F55D
:100806004875F010E549A42548F582E435F0F583EE
:10081600E5822449F582E5833401F583E493FF12EA
:100826000D7F0548E548C3940840D6E54704FDAF6B
:1008360045120D19E4F54875F010E549A42548F56B
:1008460082E435F0F583E5822451F582E5833401AF
:10085600F583E493FF120D7F0548E548C3940840ED
:10086600D674082545F5450549E549C3940D4087E5
:01087600225F
:060877008F4A8C4B8D4CF2
:10087D00E4F54DF54EF54EAD4CAF4A120D19E4F5BC
:10088D004D75F010E54EA4254DF582E435F0F58358
:10089D00E5822419F582E5833402F583E493FF1292
:1008AD000D7F054DE54DC3940840D6E54C04FDAFD5
:1008BD004A120D19E4F54D75F010E54EA4254DF5D0
:1008CD0082E435F0F583E5822421F582E583340257
:1008DD00F583E493FF120D7F054DE54DC39408405C
:1008ED00D67408254AF54A054EE54EC39405408752
:0108FD0022D8
:0608FE008F4F8C508D515C
:10090400E4F552F553F553AD51AF4F120D19E4F51B
:100914005275F010E553A42552F582E435F0F583C1
:10092400E5822469F582E5833402F583E493FF12BA
:100934000D7F0552E552C3940840D6E55104FDAF3E
:100944004F120D19E4F55275F010E553A42552F534
:1009540082E435F0F583E5822471F582E58334027F
:10096400F583E493FF120D7F0552E552C3940840CA
:10097400D67408254FF54F0553E553C394044087B7
:010984002250
:0C0985008F278C288D298B2A8A2B892C27
:10099100E4F52DE527D39470400BE4F5270529E50F
:1009A1002970020528AD29AF27120D19E4F52DABE9
:1009B1002AAA2BA92C852D82758300120AD8FF1231
:1009C1000D7F052DE52DC3941040E4E52904FDAF0D
:1009D10027120D19E4F52D7410252DF582E433F558
:1009E10083AB2AAA2BA92C120AD8FF120D7F052D41
:0709F100E52DC3941040E066
:0109F80022DC
:0C09F9008F2E8C2F8D308B318A32893389
:100A0500E4F534E52ED39470400BE4F52E0530E57E
:100A1500307002052FAD30AF2E120D19E4F534AB51
:100A250031AA32A933853482758300120AD8FF12A0
:100A35000D7F0534E534C3940840E4E53004FDAF8B
:100A45002E120D19E4F53474082534F582E433F5D6
:100A550083AB31AA32A933120AD8FF120D7F0534B0
:070A6500E534C3940840E0F2
:010A6C002267
:0C0602008F178C188D198B1A8A1B891C0D
:10060E00E4F51DF51EF51EAD19AF17120D19E4F523
:10061E001DAB1AAA1BA91C75F002E51EA4F5828556
:10062E00F083120B05C4F8540FC868FFE5F0C454EC
:10063E00F048FE7C00EF251DFFEC3EFE74A92FF561
:10064E008274003EF583E493FF120D7F051DE51DB8
:10065E00C3940840BCE51904FDAF17120D19E4F55B
:10066E001DAB1AAA1BA91C75F002E51EA4F5828506
:10067E00F083120B05C4F8540FC868FFE5F0C4549C
:10068E00F048FE7C00EF251DFFEC3EFE74B12FF509
:10069E008274003EF583E493FF120D7F051DE51D68
:1006AE00C3940840BC74082517F517051EE51EC334
:0706BE00940250030206152F
:0106C5002212
:0C03A9008F1F8C208D218B228A23892439
:1003B500E4F525F526F526AD21AF1F120D19E4F557
:1003C50025AB22AA23A92475F002E526A4F582858A
:1003D500F083120B05C4F8540FC868FFE5F0C45448
:1003E500F048FE7C00EF2525FFEC3EFE74A92FF5B5
:1003F5008274003EF583E493FF120D7F0525E52504
:10040500C3940840BCE52104FDAF1F120D19E4F5A6
:1004150025AB22AA23A92475F002E526A4F5828539
:10042500F083120B05C4F8540FC868FFE5F0C454F7
:10043500F048FE7C00EF2525FFEC3EFE74B12FF55C
:100445008274003EF583E493FF120D7F0525E525B3
:10045500C3940840BC7408251FF51F0526E526C36F
:10046500940250030203BC7408251FF51FAD21FF3C
:10047500120D19E4F525AB22AA23A92475F002E58E
:1004850026A4F58285F083120B05C4F8540FC868BD
:10049500FFE5F0C454F048FE7C00EF2525FFEC3E57
:1004A500FE74A92FF58274003EF583E493FF120DC7
:1004B5007F0525E525C3940840BCE52104FDAF1F54
:1004C500120D19E4F525AB22AA23A92475F002E53E
:1004D50026A4F58285F083120B05C4F8540FC8686D
:1004E500FFE5F0C454F048FE7C00EF2525FFEC3E07
:1004F500FE74B12FF58274003EF583E493FF120D6F
:0A0505007F0525E525C3940840BCDE
:01050F0022C9
:060B8E008F548C558D56BA
:100B9400E4F557EBC43354E0F558120D19E4F55756
:100BA400E5589002A993FF120D7F05580557E557A4
:100BB400C3941040EBE55604FDAF54120D19E4F54F
:100BC40057E5589002A993FF120D7F05580557E584
:060BD40057C3941040EB32
:010BDA0022F8
:030D360024B0FFE7
:100D39008F62120C747F78120CDCE4FF120CDCAFAA
:070D490062120CDC020C98A1
:100D7F008F63120C747F78120CDC7F40120CDCAF87
:070D8F0063120CDC020C985A
:100D19008F64ED120D36E56454F0C4540F4410FF8E
:0D0D2900120D39E564540F4401FF020D392D
:020C45008F5DC1
:100C4700E4F55EE55E120D367F01120D397F101255
:100C57000D39E4F55FAF5D120D7F055FE55FC39466
:0C0C67008040F2055EE55EC3940840D7B3
:010C7300225E
:100C1500E4F560E56024B0FF120D397F01120D394E
:100C25007F10120D39E4F561E4FF120D7F0561E5D2
:0F0C350061C3948040F20560E560C3940840D429
:010C4400228D
:100C7400D2837F017E00120DABD2847F017E0012ED
:100C84000DABC2837F017E00120DABC2847F017E57
:040C940000020DABA2
:100C9800C2847F017E00120DABC2837F017E0012E9
:100CA8000DABD2847F017E00120DABD2837F017E13
:040CB80000020DAB7E
:100CDC00E4FEEF30E704D2838002C283D284C28464
:0E0CEC00EF25E0FF0EBE08EAC283D284C28468
:010CFA0022D7
:100CBC00E4FDFCC3ED9FEC9E5015E4FBFA0BBB006E
:0F0CCC00010AEB647B4A70F50DBD00010C80E45A
:010CDB0022F6
:0B0DBE00EF1FAC0670011E4C70F62207
:100DAB00E4FDFCC3ED9FEC9E5008000DBD00010C53
:020DBB0080F1C5
:010DBD002213
:1006C6007FF47E01120CBC7FAE120D39E4FF120DD1
:1006D600397F10120D397F40120D397F81120D3985
:1006E6007FCF120D397FA1120D397FC8120D397FC8
:1006F600A6120D397FA8120D397F3F120D397FD30F
:10070600120D39E4FF120D397FD5120D397F801293
:100716000D397FD9120D397FF1120D397FDA120D9D
:10072600397F12120D397FDB120D397F40120D39D8
:100736007F20120D397F02120D397F8D120D397F00
:1007460014120D397FA4120D397FA6120D397FAF11
:0E075600120D39E4FF120C45E4FDFF020D19EF
:100CFB007B007A0079087D047C007F381203A97B86
:0E0D0B00007A0079137D067C007F3802060214
:10051000E4F55AF55BF55CC2A07F14FE120CBCD268
:10052000A07F1E7E00120DBE7F5030A006AE071FBA
:10053000EE70F7EF7002D2A07FFA20A006AE071F80
:10054000EE70F7EF7002D2A07FFA30A006AE071F60
:10055000EE70F7EF7002D2A0E4FEE4F5597F96202A
:10056000A006AD071FED70F7EF7002D2A0E4FF30D8
:10057000A0040FEF70F9E55A25E0F55AEFD3941E69
:100580004002055A0559E559B408D2740E2EF8A652
:100590005A0EBE05C57F1E7E00120DBE7F1E7E0058
:1005A000120DBED2A0E4F559740E2559F8E6255C6B
:1005B000F55CE4355BF55B0559E559B404EAE55CA7
:1005C0006512703DE51075F00A84750800F509E5BF
:1005D0001075F00A84AFF0750A008F0BE51175F005
:1005E0000A84AFF0750C008F0DE50E75F00A847566
:1005F0001300F514E50E75F00A84AFF07515008F41
:0106000016E3
:0106010022D6
:100A6D001206C6120C15E4F565E565C454F0FFE5F4
:100A7D0065FB7A00E4FDFC120B8E0565E565C394FC
:100A8D000840E67D037C00E4FF120BDB7D047C0057
:100A9D007F081208777D067C007F101208FE7BFF11
:100AAD007A0079037D047C007F601209857BFF7AD3
:100ABD000079237D067C007F581209F97BFF7A00AF
:0B0ACD0079337D047C007F480209F9AA
:0300000002076490
:0C076400787FE4F6D8FD7581650207ABD4
:100AD800BB010CE58229F582E5833AF583E02250D3
:100AE80006E92582F8E622BBFE06E92582F8E2221D
:0D0AF800E58229F582E5833AF583E4932237
:100B0500BB0110E58229F582E5833AF583E0F5F02E
:100B1500A3E0225009E92582F886F008E622BBFE0B
:100B25000AE92582F8E2F5F008E222E5832AF58351
:080B3500E993F5F0A3E9932216
:10077000020D50E493A3F8E493A34003F68001F242
:1007800008DFF48029E493A3F85407240CC8C3338A
:10079000C4540F4420C8834004F456800146F6DF59
:1007A000E4800B0102040810204080900D68E47E74
:1007B000019360BCA3FF543F30E509541FFEE4934E
:1007C000A360010ECF54C025E060A840B8E493A315
:1007D000FAE493A3F8E493A3C8C582C8CAC583CA40
:1007E000F0A3C8C582C8CAC583CADFE9DEE780BEF8
:010D7E000074
:00000001FF
