:0E0D8900060800010001000104130001000132
:100DB700758DFD858D8B438920759850D2ACD28E69
:050DC700D299D2AF2219
:100BCC00E4F5B2F5B1120A5E120510120D347FE88D
:100BDC007E03120CF57FE87E03120CF57FE87E0392
:100BEC00120CF57FE87E03120CF57FE87E03120CE5
:100BFC00F57FE87E03120CF57FE87E03120CF57F7F
:080C0C00E87E03120CF580C024
:10000300060909E6F80C040202020202041E0000BB
:10001300000000071F3020404040404020100000F7
:10002300F008F0806018000000310C031E211E0050
:10003300000000000000000000303000000000005D
:10004300000000000000007F0808087F001CA0A03B
:10005300A07C0018A4A4A47C007C08040408003835
:100063004444443800043F444020007F080404789B
:10007300003854545418007C08040408007C041805
:1000830004780038444444380018A4A4A47C007CB9
:100093000804040800205454547800FC2424241831
:1000A300007F0804047800E010080810E000000F47
:1000B300102020100F0000001010F80000000000B6
:1000C30020203F202000007008080808F0000030BE
:1000D3002824222130000030080808887000001806
:1000E300202121221C000000804030F8000000067F
:1000F3000524243F242400F8888888080800001970
:10010300202020110E0000E0108888900000000FCE
:10011300112020201F00001808088868180000001C
:10012300003E010000000070880808887000001C71
:10013300222121221C0000F008080810E000000121
:10014300122222110F000000000000000000000036
:10015300000000000000000000000000000000009C
:1001630000000000000008F8080000000000203F25
:1001730020202020300000809898000000000020FC
:10018300203F202000008080008080800000203FEE
:10019300210000203F2080808000008080808081BB
:1001A3008E70180601000000808080800000001916
:1001B300242222223F208080800080808000202013
:1001C3003F212000010000000000000000000000AB
:1001D30000000000000008F8080000000000203FB5
:1001E3002020202030000000808080800000001943
:1001F300242222223F2008F8008080000000003FD4
:10020300112020110E00000000000000000000304B
:10021300300000000000180808F808081800000063
:10022300203F2000000008F88888E8081000203FDD
:1002330020202320180008F8F800F8F80800203FD1
:10024300003F003F200008F808080808F000203F9E
:10025300210101010000000000C0C00000000000F7
:1002630000303000000008F8888888887000203F3C
:100273002000030C302008F808000008F808203F8D
:10028300210101213F2000000000000000000000C8
:10029300000000000000000000C0C00000000000DB
:1002A30000303000000000000000000000000000EB
:1002B300000000000000000000000000000000003B
:1002C300000000000000044444445F44C444444428
:1002D3005F44C4040400000000000000FF000008A5
:1002E30010080700000008CC4A49484ACC18007F90
:1002F30088888482E00000FF121252927F00007E01
:1003030088888482E0000484E45C44C48082FE82A2
:100313008282FE82800002017F10103F80601F00F6
:100323000000FF000000100C44241404E50604043C
:10033300142444140C0000804121110D0301010118
:100343003F40404070000000FC242422E302FC44B0
:100353004442C342400040300F02028243300F0048
:100363000000FF000000000000000000000000008B
:10037300000000000000000000000000000000007A
:10038300000000000000000000000000000000006A
:10039300000000000000000000000000000000005A
:0603A30000000000000054
:080D9700062100080808080805
:060B2E008F278C288D29A1
:100B3400E4F52AF52BF52BAD29AF27120D52E4F578
:100B44002A75F006E52BA4252AF582E435F0F58311
:100B5400E5822443F582E5833400F583E493FF12B0
:100B64000DA0052AE52AC3940640D674062527F568
:0A0B740027052BE52BC3941140BDAB
:010B7E002254
:060C14008F188C198D1AE7
:100C1A00E4F51BF51CF51CAD1AAF18120D52E4F5DC
:100C2A001B7421251BF8E6FF120DA0051BE51BC34B
:100C3A00940640ED74062518F518051CE51CC394A6
:030C4A001240D481
:010C4D002284
:0607E1008F2C8C2D8D2EE3
:1007E700E4F52FF530F530AD2EAF2C120D52E4F5B0
:1007F7002F75F010E530A4252FF582E435F0F58349
:10080700E5822449F582E5833401F583E493FF12F9
:100817000DA0052FE52FC3940840D6E52E04FDAFA4
:100827002C120D52E4F52F75F010E530A4252FF5A5
:1008370082E435F0F583E5822451F582E5833401BE
:10084700F583E493FF120DA0052FE52FC39408400D
:10085700D67408252CF52C0530E530C3940D408758
:01086700226E
:060868008F188C198D1A97
:10086E00E4F51BF51CF51CAD1AAF18120D52E4F58C
:10087E001B75F010E51CA4251BF582E435F0F583FD
:10088E00E5822419F582E5833402F583E493FF12A1
:10089E000DA0051BE51BC3940840D6E51A04FDAF59
:1008AE0018120D52E4F51B75F010E51CA4251BF56E
:1008BE0082E435F0F583E5822421F582E583340266
:1008CE00F583E493FF120DA0051BE51BC3940840AE
:1008DE00D674082518F518051CE51CC39405408729
:0108EE0022E7
:0608EF008F188C198D1A10
:1008F500E4F51BF51CF51CAD1AAF18120D52E4F505
:100905001B75F010E51CA4251BF582E435F0F58375
:10091500E5822469F582E5833402F583E493FF12C9
:100925000DA0051BE51BC3940840D6E51A04FDAFD1
:1009350018120D52E4F51B75F010E51CA4251BF5E6
:1009450082E435F0F583E5822471F582E58334028E
:10095500F583E493FF120DA0051BE51BC394084026
:10096500D674082518F518051CE51CC394044087A2
:01097500225F
:0C0976008F188C198D1A8B1B8A1C891D90
:10098200E4F51EE518D39470400BE4F518051AE55A
:100992001A70020519AD1AAF18120D52E4F51EAB0A
:1009A2001BAA1CA91D851E82758300120AC9FF128B
:1009B2000DA0051EE51EC3941040E4E51A04FDAF28
:1009C20018120D52E4F51E7410251EF582E433F55B
:1009D20083AB1BAA1CA91D120AC9FF120DA0051E7A
:0709E200E51EC3941040E084
:0109E90022EB
:0C09EA008F188C198D1A8B1B8A1C891D1C
:1009F600E4F51EE518D39470400BE4F518051AE5E6
:100A06001A70020519AD1AAF18120D52E4F51EAB95
:100A16001BAA1CA91D851E82758300120AC9FF1216
:100A26000DA0051EE51EC3940840E4E51A04FDAFBB
:100A360018120D52E4F51E7408251EF582E433F5EE
:100A460083AB1BAA1CA91D120AC9FF120DA0051E05
:070A5600E51EC3940840E017
:010A5D002276
:0C05F3008F178C188D198B1A8A1B891C1D
:1005FF00E4F51DF51EF51EAD19AF17120D52E4F5FA
:10060F001DAB1AAA1BA91C75F002E51EA4F5828565
:10061F00F083120AF6C4F8540FC868FFE5F0C4540B
:10062F00F048FE7C00EF251DFFEC3EFE74A92FF570
:10063F008274003EF583E493FF120DA0051DE51DA6
:10064F00C3940840BCE51904FDAF17120D52E4F531
:10065F001DAB1AAA1BA91C75F002E51EA4F5828515
:10066F00F083120AF6C4F8540FC868FFE5F0C454BB
:10067F00F048FE7C00EF251DFFEC3EFE74B12FF518
:10068F008274003EF583E493FF120DA0051DE51D56
:10069F00C3940840BC74082517F517051EE51EC343
:0706AF00940250030206064D
:0106B6002221
:0C03A9008F178C188D198B1A8A1B891C69
:1003B500E4F51DF51EF51EAD19AF17120D52E4F546
:1003C5001DAB1AAA1BA91C75F002E51EA4F58285B2
:1003D500F083120AF6C4F8540FC868FFE5F0C45458
:1003E500F048FE7C00EF251DFFEC3EFE74A92FF5BD
:1003F5008274003EF583E493FF120DA0051DE51DF3
:10040500C3940840BCE51904FDAF17120D52E4F57D
:100415001DAB1AAA1BA91C75F002E51EA4F5828561
:10042500F083120AF6C4F8540FC868FFE5F0C45407
:10043500F048FE7C00EF251DFFEC3EFE74B12FF564
:100445008274003EF583E493FF120DA0051DE51DA2
:10045500C3940840BC74082517F517051EE51EC38F
:10046500940250030203BC74082517F517AD19FF54
:10047500120D52E4F51DAB1AAA1BA91C75F002E575
:100485001EA4F58285F083120AF6C4F8540FC868D5
:10049500FFE5F0C454F048FE7C00EF251DFFEC3E5F
:1004A500FE74A92FF58274003EF583E493FF120DC7
:1004B500A0051DE51DC3940840BCE51904FDAF1753
:1004C500120D52E4F51DAB1AAA1BA91C75F002E525
:1004D5001EA4F58285F083120AF6C4F8540FC86885
:1004E500FFE5F0C454F048FE7C00EF251DFFEC3E0F
:1004F500FE74B12FF58274003EF583E493FF120D6F
:0A050500A0051DE51DC3940840BCCD
:01050F0022C9
:060B7F008F188C198D1A7D
:100B8500E4F51BEBC43354E0F51C120D52E4F51BE0
:100B9500E51C9002A993FF120DA0051C051BE51B82
:100BA500C3941040EBE51A04FDAF18120D52E4F59D
:100BB5001BE51C9002A993FF120DA0051C051BE562
:060BC5001BC3941040EB7D
:010BCB002207
:030D6F0024B0FFAE
:100D72008F20120CAD7F78120D15E4FF120D15AF06
:070D820020120D15020CD137
:100DA0008F1F120CAD7F78120D157F40120D15AFFD
:070DB0001F120D15020CD10A
:100D52008F1FED120D6FE51F54F0C4540F4410FFA6
:0D0D6200120D72E51F540F4401FF020D72C7
:020C7E008F18CD
:100C8000E4F519E519120D6F7F01120D727F101234
:100C90000D72E4F51AAF18120DA0051AE51AC394E7
:0C0CA0008040F20519E519C3940840D704
:010CAC002225
:100C4E00E4F518E51824B0FF120D727F01120D7233
:100C5E007F10120D72E4F519E4FF120DA00519E5CF
:0F0C6E0019C3948040F20518E518C3940840D4C8
:010C7D002254
:100CAD00D2837F017E00120DCCD2847F017E001293
:100CBD000DCCC2837F017E00120DCCC2847F017EDC
:040CCD0000020DCC48
:100CD100C2847F017E00120DCCC2837F017E00128F
:100CE1000DCCD2847F017E00120DCCD2837F017E98
:040CF10000020DCC24
:100D1500E4FEEF30E704D2838002C283D284C2842A
:0E0D2500EF25E0FF0EBE08EAC283D284C2842E
:010D3300229D
:100CF500E4FDFCC3ED9FEC9E5015E4FBFA0BBB0035
:0F0D0500010AEB647B4A70F50DBD00010C80E420
:010D140022BC
:0B0DF900EF1FAC0670011E4C70F622CC
:100DCC00E4FDFCC3ED9FEC9E5008000DBD00010C32
:020DDC0080F1A4
:010DDE0022F2
:0C0DDF007F017EEA7D71DDFEDEFCDFFAA4
:010DEB0022E5
:040E04007F57DFFE37
:010E080022C7
:0C0DEC007F2E7E997DF5DDFEDEFCDFFA37
:010DF80022D8
:1006B7007FF47E01120CF57FAE120D72E4FF120D6E
:1006C700727F10120D727F40120D727F81120D72B0
:1006D7007FCF120D727FA1120D727FC8120D727F2C
:1006E700A6120D727FA8120D727F3F120D727FD373
:1006F700120D72E4FF120D727FD5120D727F8012F8
:100707000D727FD9120D727FF1120D727FDA120D01
:10071700727F12120D727FDB120D727F40120D7203
:100727007F20120D727F02120D727F8D120D727F64
:1007370014120D727FA4120D727FA6120D727FAF75
:0E074700120D72E4FF120C7EE4FDFF020D5253
:100D34007B007A0079087D047C007F381203A97B4C
:0E0D4400007A0079137D067C007F380205F3EB
:10051000E4F518F519F51AC2A0120DDFD2A0120EDB
:10052000047F5030A006AE071FEE70F7EF7002D2C6
:10053000A07FFA20A006AE071FEE70F7EF7002D280
:10054000A07FFA30A006AE071FEE70F7EF7002D260
:10055000A0E4FEE4F5177F9620A006AD071FED701E
:10056000F7EF7002D2A0E4FF30A0040FEF70F9E5BE
:100570001825E0F518EFD3941E400205180517E57D
:1005800017B408D2740E2EF8A6180EBE05C5120EAA
:1005900004120E04D2A0E4F517740E2517F8E62510
:1005A0001AF51AE43519F5190517E517B404EAE543
:1005B0001A6512703DE51075F00A84750800F5099A
:1005C000E51075F00A84AFF0750A008F0BE5117520
:1005D000F00A84AFF0750C008F0DE50E75F00A84FB
:1005E000751300F514E50E75F00A84AFF07515006B
:0205F0008F1664
:0105F20022E6
:100A5E001206B7120C4EE4F517E517C454F0FFE575
:100A6E0017FB7A00E4FDFC120B7F0517E517C39404
:100A7E000840E67D037C00E4FF120C147D047C002C
:100A8E007F081208687D067C007F101208EF7BFF3E
:100A9E007A0079037D047C007F601209767BFF7AF1
:100AAE000079237D067C007F581209EA7BFF7A00CD
:0B0ABE0079337D047C007F480209EAC8
:030000000207559F
:0C075500787FE4F6D8FD75813002079C27
:100AC900BB010CE58229F582E5833AF583E02250E2
:100AD90006E92582F8E622BBFE06E92582F8E2222C
:0D0AE900E58229F582E5833AF583E4932246
:100AF600BB0110E58229F582E5833AF583E0F5F03E
:100B0600A3E0225009E92582F886F008E622BBFE1A
:100B16000AE92582F8E2F5F008E222E5832AF58360
:080B2600E993F5F0A3E9932225
:10076100020BCCE493A3F8E493A34003F68001F2D7
:1007710008DFF48029E493A3F85407240CC8C33399
:10078100C4540F4420C8834004F456800146F6DF68
:10079100E4800B0102040810204080900D89E47E62
:1007A100019360BCA3FF543F30E509541FFEE4935D
:1007B100A360010ECF54C025E060A840B8E493A324
:1007C100FAE493A3F8E493A3C8C582C8CAC583CA4F
:1007D100F0A3C8C582C8CAC583CADFE9DEE780BE07
:010D9F000053
:00000001FF
