:10011A00E4FDFCC3ED9FEC9E5015E4FBFA0BBB001B
:0F012A00010AEB647B4A70F50DBD00010C80E407
:0101390022A3
:0B019100EF1FAC0670011E4C70F62240
:10017200E4FDFCC3ED9FEC9E5008000DBD00010C98
:0201820080F10A
:010184002258
:0B019C0012013A12015912008E80F887
:0A01A700C0F9A4B0999282F880908C
:10015900759D0275BCE1E4F5BD43BC08E5BC30E41E
:09016900FBAFBD7508008F0922EF
:10008E00AE08AF097C007D0A120003AB05AE08AFC7
:10009E00097C007D0A1200037C007D0A1200038D8C
:1000AE0014AE08AF097C007D641200037C007D0A4B
:1000BE001200038D15AF03740A2F1200F57F041280
:1000CE000103C281D281740A25141200F57F021237
:1000DE000103C281D281740A25151200F57F011227
:0600EE000103C281D28172
:0100F40022E9
:0E00F500F8E624A7F582E43401F583E493FFD6
:100103007E08EF30E704D2808002C280EF25E0FF53
:06011300C282D282DEEC84
:0101190022C3
:10013A00E4F50A750B01750C02750D03750E04754D
:0F014A000F057510067511077512087513092238
:0300000002018575
:0C018500787FE4F6D8FD75811502019C1E
:10000300C2D5EC30E709B2D5E4C39DFDE49CFCEE18
:1000130030E715B2D5E4C39FFFE49EFE120039C357
:10002300E49DFDE49CFC800312003930D507C3E452
:060033009FFFE49EFE2287
:10003900BC000BBE0029EF8DF084FFADF022E4CCAB
:10004900F875F008EF2FFFEE33FEEC33FCEE9DEC74
:10005900984005FCEE9DFE0FD5F0E9E4CEFD22EDBA
:10006900F8F5F0EE8420D21CFEADF075F008EF2F04
:10007900FFED33FD4007985006D5F0F222C398FDF5
:050089000FD5F0EA2292
:00000001FF
