:1000EF000F080002050810202D4058648096B4DCDC
:0100FF00F010
:1000C80075D90275DA42E4F5F275EA8075FA80F5B9
:0400D800E9D2DE2269
:0D0101007F3A7E977D31DDFEDEFADFF600ED
:01010E0022CE
:1000AF00E4FBFA74082BF8E6F5FA1201010BBB001A
:0800BF00010AEB640C4A70EB2E
:0100C7002216
:10008F00E4FDFCC3ED9FEC9E5015E4FBFA0BBB00A7
:0F009F00010AEB647B4A70F50DBD00010C80E493
:0100AE00222F
:0B010F00EF1FAC0670011E4C70F622C2
:1000DC00E4FDFCC3ED9FEC9E5008000DBD00010C2F
:0200EC0080F1A1
:0100EE0022EF
:08011A001200C81200AF80FBC7
:03000000020003F8
:0C000300787FE4F6D8FD75811602004AF3
:10000F0002011AE493A3F8E493A34003F68001F2EC
:10001F0008DFF48029E493A3F85407240CC8C333F2
:10002F00C4540F4420C8834004F456800146F6DFC1
:10003F00E4800B01020408102040809000EFE47E62
:10004F00019360BCA3FF543F30E509541FFEE493B6
:10005F00A360010ECF54C025E060A840B8E493A37D
:10006F00FAE493A3F8E493A3C8C582C8CAC583CAA8
:10007F00F0A3C8C582C8CAC583CADFE9DEE780BE60
:0101000000FE
:00000001FF
